:020000040000fa
:020000040040ba
:10000000f0ff4520090c400067294000272d4000e3
:1000100017344000bb3440002f3540000000000082
:10002000000000000000000000000000f13140006e
:100030008f30400000000000b12a40003130400005
:100040008f2640008f2640008f264000452a400022
:100050008f2640008f2640008f2640008f264000cc
:100060008f264000000000008f2640008f264000b1
:100070008f2640008f26400041114000151040009f
:100080008f2640008f264000bd144000710a4000ba
:100090008f2640008f2640008f2640008f2640008c
:1000a0008f2640008f2640008f2640008f2640007c
:1000b0008f2640008f2640008f2640008f2640006c
:1000c0008f2640008f2640008f2640008f2640005c
:1000d0008f2640008f2640008f2640008f2640004c
:1000e0008f2640008f2640008f2640008f2640003c
:1000f0008f2640008f2640008f2640008f2640002c
:100100008f2640008f2640008f2640008f2640001b
:100110008f264000000000000000000000000000ea
:100120008f2640008f264000d92940008f264000ae
:100130008f2640008f2640008f2640008f264000eb
:100140008f2640008f2640008f2640008f264000db
:100150008f2640008f2640008f2640008f264000cb
:080160008f2640008f264000ad
:020000040000fa
:020000040040ba
:10016800f8b500bff8bc08bc9e467047252e400075
:10017800f8b500bff8bc08bc9e467047012e400089
:020000040000fa
:020000040040ba
:10018800280740201c000000000000005c074020f9
:1001980014000000000000000000402008000000db
:1001a80000000000a0064020280000000000000019
:1001b8000800402030000000000000003800402007
:1001c80010000000000000006000402078010000de
:1001d8000000000044074020180000000100000053
:1001e800e001402020044020980740200000000043
:1001f8002002402000000000e00140205c020000d6
:1002080000000000980740200c00000000000000db
:10021800a40740200400000000000000a8074020b8
:100228000400000001000000aaaaaaaaac07402006
:100238000400000000000000b00740200400000097
:1002480000000000b4074020040000000000000087
:10025800dc0540206400000000000000b8074020d2
:100268000400000000000000bc074020040000005b
:1002780000000000c007402004000000000000004b
:10028800c40740200400000000000000c807402008
:100298000400000000000000cc074020040000001b
:1002a800000000007007402014000000000000005b
:1002b800840740201400000000000000d007402000
:1002c8000400000000000000d407402004000000e3
:1002d800000000003c044020300000000000000046
:1002e800d80740200400000000000000dc07402080
:1002f8000400000000000000e007402004000000a7
:1003080000000000c8064020200000000000000097
:10031800e8064020200000000000000008074020f8
:100328002000000000000000e40740200400000056
:100338000100000040064020400640206000000008
:100348000100000000000000e806402008074020e7
:10035800c806402000000000000000000000000067
:100368000000000000000000000000000000000085
:100378000000000000000000000000000000000075
:100388000000000000000000000000000000000065
:100398000000000000000000000000000000000055
:1003a80000000000700440206c0100000100000003
:1003b80043000000000000000000000000000000f2
:1003c8000000000000000000000000000000000025
:1003d80043000000000000000000000000000000d2
:1003e8000000000000000000000000000000000005
:1003f80043000000000000000000000000000000b2
:1004080000000000000000000000000000000000e4
:100418004300000000000000000000000000000091
:1004280000000000000000000000000000000000c4
:100438004300000000000000000000000000000071
:1004480000000000000000000000000000000000a4
:100458004300000000000000000000000000000051
:100468000000000000000000000000000000000084
:100478004300000000000000000000000000000031
:100488000000000000000000000000000000000064
:10049800893440005d32400000000000fc17400035
:1004a800f1354000f0354000f0354000f0354000af
:1004b800f0354000f0354000f0354000f0354000a0
:1004c800f0354000f0354000ffffffffffffffff62
:1004d800ffffffffffff00000100415343494900b0
:1004e8000000000000000000000000000000000004
:1004f800000000000000000000004153434949008b
:1005080000000000000000000000000000000000e3
:100518000000000000000000000000006c04402003
:100528000400000000000000e8074020040000006c
:10053800000000000000000000000000222222222b
:020000040000fa
:020000040040ba
:100548002de9f04f0e4697b015461c46074618b1e0
:1005580083690bb902f0dafab34b9e425cd17e682c
:10056800b389190762d53369002b5fd0002309933b
:1005780020238df82930dff8b4a230238df82a30f3
:100588004ff0ff392b46984613f8012b0ab1252a5c
:10059800f9d1b8eb050b0bd05b462a4631463846f5
:1005a80002f098fb013000f02381099b5b4409931a
:1005b80098f80030002b00f01b810023cde905934b
:1005c80008f10108049307938df853304ff0010b9d
:1005d8004546052215f8011b944801f04dfd049b82
:1005e80078bbda0644bf20228df85320180744bf91
:1005f8002b228df8532098f800202a2a29d0079a10
:10060800454600204ff00a0c294611f8013b303bc3
:10061800092b5ed908bb27e0854b9e4201d1be68f5
:100628009ee7844b9e4208bffe6899e731463846ec
:1006380001f048fa002899d04ff0ff3017b0bde814
:10064800f08fa0eb0a000bfa00f018430490a846bc
:10065800bee754f8042b002a01db079204e052425b
:1006680043f00203079204932b782e2b0bd16b785f
:100678002a2b33d154f8043b002b05f10205acbffb
:100688000593cdf81490032229786b4801f0f4fc07
:1006980040b1694bc01a402303fa00f0049b03439e
:1006a8000135049315f8011b64488df828100622bb
:1006b80001f0e2fc9df82820692a29d039d8582a67
:1006c80000f0c4801fd8002a00f0de808df8522088
:1006d800a2e00cfb023201200d4695e7002301350c
:1006e800059319464ff00a0c284610f8012b303aaa
:1006f800092a03d9002bc6d00591c4e70cfb0121b8
:1007080001230546f0e7632a00f08280642addd1e0
:10071800049a54f8043b110602d4520648bf1bb28f
:10072800002b03da2d225b428df8532044490a221c
:1007380015e0702a00f0a18060d86f2ac6d104990c
:1007480054f8043b080602d4490648bf9bb26f2af6
:100758003b490cbf08220a2200208df85300ddf81f
:1007680014c0cdf818c0bcf1000fa2bf049820f047
:10077800040004900df15300804613b9bcf1000f3a
:1007880009d0b3fbf2fc02fb1c3e9a4211f80ee0c2
:1007980008f801ed76d9082a0bd1049bdb0708d5a8
:1007a800089b059a9a42debf302308f8013c08f1fd
:1007b800ff38a0eb08000890224b009303aa3346a9
:1007c80004a9384601f097f8013011d0089b424639
:1007d8003146384602f07efa013009d0049b990769
:1007e80067d4079b039a9342b8bf13465a1c63d138
:1007f800b3895b063ff520af09981fe7752a9ed09d
:10080800782a7ff463af78238df855300e4920e0bd
:1008180054f8043b8df852300123089300238df8d7
:1008280053300df15208c7e7e8064020ee2f40008c
:1008380008074020c8064020f42f4000f82f400049
:10084800cc2f4000dd2c4000dd2f40001c498df8e6
:100858005520049a54f8043b100602d4500648bfa9
:100868009bb2d00744bf42f0200204921bb9049afd
:1008780022f02002049210226ee7049b43f020032a
:100888000493c0e763467ce708920df1530893e7a9
:1008980001230df129023146384602f01bfa0130d6
:1008a800a6d008f10108079b039a9b1a9845efdb2d
:1008b80097e74ff00008f6e7099a1344099361e6b1
:0408c800cc2f4000f1
:020000040000fa
:020000040040ba
:1008cc00002800f0bd8070b582b00546b1b1531e52
:1008dc00dbb2022b12d814460e4602f045f998b141
:1008ec005a4b00221a705a4b1b78a34200f0898095
:1008fc00564b15221a704ff0ff3080e0534b1322e9
:10090c001a704ff0ff307ae0504b03221a704ff000
:10091c00ff3074e04d4b01221a704ff0ff306ee047
:10092c004a4b16221a704ff0ff3068e0474b0722f3
:10093c001a704ff0ff3062e0444b07221a704548a2
:10094c0002f0a9fd4ff0ff3059e0404b17221a700e
:10095c0036e03e4b17221a703f4802f09cfd4ff0d8
:10096c00ff3445e03c4802f096fd3ae03b4b5c70ae
:10097c00374a52685a6000221a73741d73792f2bf0
:10098c000bd053b12146354a137b0133137311f845
:10099c00013f2f2b01d0002bf6d130488460009bf7
:1009ac0043734ff6ff71103002f020fd0128c3d1c4
:1009bc002a4b5b689b6c002bc7d0284a507b98470e
:1009cc00264b5b681b68002bc3d0244a507b98478e
:1009dc0004461e4b18700d28c4d01f4802f05bfd56
:1009ec0034b91e4a012111701d4b19705a60002434
:1009fc00184802f050fd201c18bf0120404202b0e4
:100a0c0070bd6946284602f0f5fa002882d09df8a0
:100a1c0004300bb1a34283d14ff6ff710d4802f0a5
:100a2c00e5fc012882d10d4b1b78002b9ed0094888
:100a3c0002f031fd054b14221a704ff0ff30dee747
:100a4c00024b13221a704ff0ff307047c001402048
:100a5c00b801402060004020d4014020c401402057
:040a6c00b001402075
:020000040000fa
:020000040040ba
:100a700010b5634b1b6a13f4807f04d0614aff21d9
:100a800011770121517713f0010106d05c4a08204b
:100a90001060042010600720906213f4007f02d0e1
:100aa000584a01201077574a527f8ab9554a127f17
:100ab00052b2013a032a0bd8dfe802f002541c7844
:100ac000504bdb6883b100214e4b188801f086fa49
:100ad0004c4b1b7f5bb2b3f1ff3f6dd0494b1b7f8b
:100ae0005bb2052b78d010bd0121464b188801f070
:100af00075faede713f0040fead0424b5a69db6850
:100b0000013b9a4209d03f4b5968501c58618a5c9e
:100b10003b4b5a633a4b1b6adae73a4b1b699bb96a
:100b2000384b5968501c58618a5c354b5a63022215
:100b30001a6004229a621b6a13f0010f314b14bf32
:100b4000052204221a77e5e772b62d4a0423936240
:100b50002c4b586859694c1c5c61435c536302f030
:100b6000e7f9d7e713f0020fb2d0264a1369023b28
:100b700092699a4216d0224b1c6b224b9868996955
:100b80004a1c9a6144541b699a42a1d11c4b02220f
:100b90009a621b6a13f0010f1a4b14bf052204223c
:100ba0001a7795e7164b02221a60e4e700298fd0e6
:100bb000144b05221a778be7124a00231377104b48
:100bc000072199620821196004211960136a002b1a
:100bd00084d0506a984781e70a4b00225a771a77e7
:100be000074a0721916208211160042111601b6ae4
:100bf000002b3ff478af034a506a984773e700bf71
:080c000000800140a006402025
:020000040000fa
:020000040040ba
:100c080008b54f4b98474f4b9847eff3108172b692
:100c18004d4ad2f8883043f47003c2f88830bff3e5
:100c28004f8fbff36f8f01b962b6484b484a5a607d
:100c38009a6812f0010ffbd0444bdb6813f4c07fb5
:100c480013d0444b0c221a60404b434a5a609a68ae
:100c580012f0010ffbd03d4b404a5a609a6812f0df
:100c6800010ffbd03e4b3f4a1a60bff34f8fbff3d3
:100c78006f8f354cd4f8903223f00103c4f89032ca
:100c8800d4f8943223f00103c4f89432bff34f8fa1
:100c9800bff36f8f01f0b0fb334b23f07f03a360ea
:100ca800324b9847636913f4003f12d1bff34f8f5b
:100cb800bff36f8f0022c4f85022bff34f8fbff3ea
:100cc8006f8f626942f400326261bff34f8fbff3e6
:100cd8006f8f1d4b5b6913f4803f29d11a4b00229b
:100ce800c3f88420bff34f8fd3f88030c3f3c9060d
:100cf800c3f34e335a0143f6e075134802ea05047c
:100d0800334644ea8371c0f86012013bb3f1ff3ff8
:100d1800f7d1203a12f1200ff0d1bff34f8f0a4ad2
:100d2800536943f480335361bff34f8fbff36f8f21
:100d38000f4b98470f4b984701f074fffee700bf31
:100d4800393640003936400000ed00e0000c0e4016
:100d58000d00005aa40740200c08005a0c07005a3e
:100d680000180e40010000a500004000292d400099
:080d7800393640003936400015
:020000040000fa
:020000040040ba
:100d80002de9f04184b0044601914ff00008464639
:100d90004546504f49e0013ba36323684bb12369ab
:100da0005bb902f0c5fb4ff00108404604b0bde856
:100db000f08102f03ffba060f1e704f1100001f0c8
:100dc00021fd0028edd0434b4ff080521a60bff355
:100dd0004f8fbff36f8fe4e702f0aafb4ff00008dc
:100de000e3e702a802f06afb29e084f8445032e00d
:100df00084f8455035e002f00dfaa06801f09af849
:100e0000804602f095fb3ce0204601f001fc00f03a
:100e1000ebfd09e0204601f0fbfb00f0e5fd20467c
:100e200002f07afb002840d1012602f0f3f9a36b0f
:100e3000002bb0d1019b002bced0002ed1d002f0e0
:100e400077fb02f093fb02f0e5f994f844305bb2d3
:100e5000b3f1ff3fc9d094f845305bb2b3f1ff3f27
:100e6000c6d002f065fb01a902a801f0b1fe00287e
:100e7000d0d1204602f050fb0028c5d02368002bbb
:100e8000b9d0019904f1240002f0c6fa204601f01d
:100e9000bffb00f0a9fd0028c6d14ff080533b6096
:100ea000bff34f8fbff36f8fbee7b8f1000f3ff472
:100eb0007caf02f0aff9616a19b1236b1968c1f117
:100ec0000501a06801f064fb02f032fb4ff000085e
:080ed0006be700bf04ed00e038
:020000040000fa
:020000040040ba
:100ed80010b590b0044603780b2b37d8dfe803f041
:100ee80006162b4b386272367e57368500230093e0
:100ef8000122c16a806afff7e5fc10b9012323705b
:100f080024e013213c4801f02bfd1fe0c06a00f0eb
:100f180061ffb0f1ff3f02d10623237016e00f21d5
:100f2800364801f01dfd237a13b1022323700de02a
:100f3800032323700ae00221c06800f093f960607f
:100f4800b0f1ff3f0cbf06230423237010b010bd7f
:100f5800037e002bfad0c2694169406801f008faa3
:100f68002062b0f1ff3f0cbf06230823237060689e
:100f780001f08afbeae70021c06800f073f96060bd
:100f8800b0f1ff3f0cbf062309232370dee740685a
:100f980001f0b8fb2061b0f1ff3f0cbf0623052329
:100fa8002370d3e7c2694169406801f069fa206299
:100fb800b0f1ff3f0cbf062308232370606801f0df
:100fc80063fbc3e702f0eefa02460d4903a801f0fd
:100fd80053ff322103a801f0c3fcb7e71a210948df
:100fe80001f0befc07232370b0e71a21064801f080
:100ff800b7fc07232370a9e74c214000602140007b
:0c1008007021400084214000a021400025
:020000040000fa
:020000040040ba
:1010140038b5484b5b6913f0e0030fd1454b5b696e
:1010240013f0010f1cd1434b5b6913f0020f04d082
:10103400404b1b6913f0020f44d138bddbb23e4c68
:1010440084f82d3002f022f83a4be122da600023d2
:1010540084f82c30636a002b69d0a06a9847dde7d6
:10106400354b93f82c30002bddd03249324b4a6992
:1010740012f0010f13d01a6ad86990420fd98a6905
:10108400c2f30802486810f4003f9c69186a00f132
:1010940001051d6214bf24f810202254e7e7264bf3
:1010a4001a6adb699a42bed3234b002283f82c20b0
:1010b400204ae121d1605b6a002bb4d01e4a906ab9
:1010c4009847b0e71c4b1b7d002bb6d01a4b5868d1
:1010d4001c68184b184a04e091684d1c9560615ccb
:1010e400d961596911f0020f0fd0916888420cd967
:1010f400596811f4003fefd091684d1c956034f8a5
:101104001110c1f30801d961ebe70b4b9a685b68d6
:101114009a4292d3084b00221a75064a0221d160e2
:10112400db68002b89d0044a1069984785e7014b96
:0c1134005b6978e700c002400800402022
:020000040000fa
:020000040040ba
:1011400038b5484b5b6913f0e0030fd1454b5b6941
:1011500013f0010f1cd1434b5b6913f0020f04d055
:10116000404b1b6913f0020f44d138bddbb23e4c3b
:1011700084f82d3001f0b8ff3a4be122da60002309
:1011800084f82c30636a002b69d0a06a9847dde7a9
:10119000354b93f82c30002bddd03249324b4a6965
:1011a00012f0010f13d01a6ad86990420fd98a69d8
:1011b000c2f30802486810f4003f9c69186a00f105
:1011c00001051d6214bf24f810202254e7e7264bc6
:1011d0001a6adb699a42bed3234b002283f82c2083
:1011e000204ae121d1605b6a002bb4d01e4a906a8c
:1011f0009847b0e71c4b1b7d002bb6d01a4b5868a4
:101200001c68184b184a04e091684d1c9560615c9d
:10121000d961596911f0020f0fd0916888420cd939
:10122000596811f4003fefd091684d1c956034f877
:101230001110c1f30801d961ebe70b4b9a685b68a9
:101240009a4292d3084b00221a75064a0221d160b5
:10125000db68002b89d0044a1069984785e7014b69
:0c1260005b6978e7008002403c044020fd
:020000040000fa
:020000040040ba
:10126c0030b5c3b004460d46002141914ff4817254
:10127c00684602f085f96a4641a9204600f08efcca
:10128c00002876d0419b5b78022b00d195b94ff6a4
:10129c00ff71394802f0aaf8012811d1374b1b789d
:1012ac00abb1354802f0f7f8354b12221a704ff0fb
:1012bc00ff300ae0324b07221a704ff0ff3004e087
:1012cc002f4b07221a704ff0ff3043b030bd2b4b21
:1012dc0001221a70419a5a60274802f0dcf89df8f6
:1012ec0002302f2b14bf0df102000df10300037817
:1012fc00224a82f8203053b1034602f12001fe301d
:10130c0013f8012f01f8012f0ab19842f8d14ff6ca
:10131c00ff714198103002f069f8012814d1184b74
:10132c0000221a70419843689b68b3b12a466946fb
:10133c00144898470446124b18704198103002f02c
:10134c00aaf884b90d48c0e70d4b07221a700b4b55
:10135c0000221a704ff0ff30b7e7094b17221a70b2
:10136c00103002f098f8054b00221a704ff0ff3045
:10137c00abe74ff0ff30a8e7600040208000402032
:08138c00c00140208800402050
:020000040000fa
:020000040040ba
:101394002de9f04784b00446884601921d464ff07b
:1013a40000094e46434f39e02a464146204601f0a3
:1013b4009ffa636a73b938b13e4b4ff080521a609a
:1013c400bff34f8fbff36f8f02f0b0f8012004b06a
:1013d400bde8f08704f1240001f012fa0028f3d0ec
:1013e400344b4ff080521a60bff34f8fbff36f8faf
:1013f400eae702f09bf80020e9e702a802f05cf8b3
:101404001ae084f8446023e084f8456026e020462e
:1014140001f0fcf800f0e6fa4ff0010901f0f8fee3
:10142400a26be36b9a42bfd3022dbdd0019b002b6c
:10143400dfd0b9f1000fe0d002f078f802f094f8b0
:1014440001f0e6fe94f844305bb2b3f1ff3fd8d02c
:1014540094f845305bb2b3f1ff3fd5d002f066f8a3
:1014640001a902a801f0b2fbe8b901f0d1fed4f859
:1014740038a0d4f83c9002f059f8ca45c7d1019974
:1014840004f1100001f0c6ff204601f0bff800f09f
:10149400a9fa0028c0d14ff080533b60bff34f8faf
:1014a400bff36f8fb8e7204601f0b0f800f09afa66
:0814b40000208ce704ed00e0cc
:020000040000fa
:020000040040ba
:1014bc0008b54ff08043da6c1b6c1a4276d0404969
:1014cc00097800293dd03f49194000296fd013f409
:1014dc00f81f2bd013f4801f07d012f4801f04d0f8
:1014ec003748817841f00101817013f4802f07d0c7
:1014fc0012f4802f04d03248817841f002018170bf
:10150c0013f4803f07d012f4803f04d02c4881782c
:10151c0041f00801817013f4202f07d012f4202f12
:10152c0004d027498a7842f004028a70244a0021a8
:10153c0011704ff08041886c224a02438a6401206a
:10154c0000e000201e4a527852b31f4a1a403ab3a8
:10155c001e4a1a40cab1002b2bdb13f0804f04d06b
:10156c0017498a7862f07f028a7013f4800f04d0d6
:10157c0013498a7842f010028a7013f4001f04d0c9
:10158c000f4a937843f0200393700d4b00225a704e
:10159c004ff08042916c0c4b0b43936440f0020073
:1015ac00074bdb6813b1064a1169984708bd002048
:1015bc00c8e703498a7842f040028a70cde700bf41
:1015cc005c07402001001f00000060c8000060c0e4
:020000040000fa
:020000040040ba
:1015dc002de9f047384b1b68002b67d1374b1f6840
:1015ec0001371f60bfb1364b1b68bb4220d90025a9
:1015fc00344b1b68db6a03eb83039b00324ad358e2
:10160c00022b28bf0125314b1b68002b18bf01256d
:10161c002846bde8f0872e4a11682e4b18681060da
:10162c0019602d4a13680133136001f041fddae7ac
:10163c000025dff89c80dff8a890dff88ca021e073
:10164c001f4b4ff0ff321a60d2e71d4a1360cfe7f1
:10165c0004f1180001f0aefde06ad9f80020012376
:10166c0083401343c9f8003000eb800031460aeb8d
:10167c00800001f040ff134b1b68e26adb6a9a4260
:10168c0028bf0125d8f800301b68002bd8d0d8f81b
:10169c000030db68dc6863689f42d6d3261d304679
:1016ac0001f088fda36a002bd2d1d5e70b4a136851
:1016bc00013313600025abe7bc074020d007402066
:1016cc00c4074020ac074020dc054020d407402054
:1016dc00b0074020b4074020c8074020cc0740206a
:0416ec00c0074020d3
:020000040000fa
:020000040040ba
:1016f0008a892de9f041054610070c4658d44b68fd
:10170000002b05dc0b6c002b02dc0020bde8f08117
:10171000e66a002ef9d0002312f480522f682b6065
:1017200032d0606da3895a0705d56368c01a636b10
:101730000bb1236cc01a00230246e66a216a2846d0
:10174000b047431ca38906d129681d292cd82a4af1
:10175000ca40d60728d500226260d90422692260d7
:1017600004d5421c01d12b6803b96065616b2f6001
:101770000029cad004f14403994202d0284600f05f
:101780001dfd00206063c1e7216a01232846b047a0
:10179000411cc7d12b68002bc4d01d2b01d0162ba8
:1017a00001d12f60b1e7a38943f04003a381ade7e6
:1017b0000f69002fa9d093070e6808bf4b690f600f
:1017c00018bf0023a6eb07088b60b8f1000f9cdd63
:1017d00043463a46216aa66a2846b047002806dcf6
:1017e000a38943f04003a3814ff0ff308ee7074405
:0c17f000a8eb0008e9e700bf0100402062
:020000040000fa
:020000040040ba
:1017fc0000202020202020202020282828282820d5
:10180c0020202020202020202020202020202020cc
:10181c002088101010101010101010101010101034
:10182c001004040404040404040404101010101024
:10183c0010104141414141410101010101010101ee
:10184c000101010101010101010101011010101040
:10185c0010104242424242420202020202020202c0
:10186c000202020202020202020202021010101014
:10187c00200000000000000000000000000000003c
:10188c00000000000000000000000000000000004c
:10189c00000000000000000000000000000000003c
:1018ac00000000000000000000000000000000002c
:1018bc00000000000000000000000000000000001c
:1018cc00000000000000000000000000000000000c
:1018dc0000000000000000000000000000000000fc
:1018ec0000000000000000000000000000000000ec
:0118fc0000eb
:020000040000fa
:020000040040ba
:1018fe002de9f04791461f468a680b69ddf8208076
:10190e009342b8bf1346c9f8003091f843200646fb
:10191e000c4612b10133c9f800302368990642bf54
:10192e00d9f800300233c9f80030256815f00605e5
:10193e0007d104f1190ae368d9f800209b1aab42cb
:10194e0028dc94f843302268003318bf0123920636
:10195e002dd404f1430239463046c047013020d021
:10196e002368e568d9f8002003f00603042b08bfae
:10197e00ad1aa36822690cbf25eae57500259342ce
:10198e00c4bf9b1aed184ff000091a344d451ad1f9
:10199e00002008e00123524639463046c047013048
:1019ae0003d14ff0ff30bde8f0870135c3e7e118f2
:1019be005a1c302081f84300224494f8451082f8d6
:1019ce0043100233c5e70123224639463046c0474d
:0a19de000130e6d009f10109d8e755
:020000040000fa
:020000040040ba
:1019e8002de9f04101f012fc2d4b1a68013a1a60fa
:1019f8001b68002b4dd12b4b1b680bb9002449e009
:101a08000024294e294fdff8b880336803b3f36800
:101a1800dc6804f1180001f0cffb251d284601f011
:101a2800cbfbe06a3a680123834013433b6000eb39
:101a38008000294608eb800001f05ffd1c4b1b6805
:101a4800e26adb6a9a42e0d31a4b01221a60dce7a9
:101a58000cb101f02ffb184b1c686cb1154e012519
:101a680001e0013c05d0fff7b5fd0028f9d035604d
:101a7800f7e7114b00221a600e4b1c6854b10f4b4c
:101a88004ff080521a60bff34f8fbff36f8f01245e
:101a980000e0002401f048fd2046bde8f08100bfc9
:101aa800bc074020b807402070074020c0074020ee
:101ab800ac074020d4074020cc07402004ed00e0cc
:041ac800dc054020d9
:020000040000fa
:020000040040ba
:101acc00324b70b51d6806460c4625b1ab6913b98f
:101adc00284601f019f82e4b9c420fd16c68b4f9d2
:101aec000c309ab215072cd4d00611d409223260ce
:101afc0043f04003a3814ff0ff303ee0254b9c4266
:101b0c0001d1ac68ebe7244b9c4208bfec68e6e7dc
:101b1c00510712d5616b41b104f14403994202d0d3
:101b2c00304600f045fb00236363a38923f02403b4
:101b3c00a3810023636023692360a38943f0080316
:101b4c00a38123694bb9a38903f42073b3f5007ff8
:101b5c0003d02146304600f0c3fba28912f00103ea
:101b6c000cd00023a36063695b42a361236953b962
:101b7c00b4f90c3013f08000bad170bd920758bf85
:101b8c006369a360f2e70020f7e700bfe407402099
:0c1b9c00e806402008074020c806402052
:020000040000fa
:020000040040ba
:101ba8002de9f04104460f46164601f0f3fc85b2d4
:101bb80005222849204601f03bfbd0b9264b1b786b
:101bc8004bb10534244b93f80c8042469968204663
:101bd80001f02efb18b1214b06221a701ae01e4b99
:101be8003b6044444ff6fb73a3eb08031d44adb2be
:101bf80005e01b4b1b7853b1194b5b683b6036b350
:101c0800ff2d0ad9154b06221a70002003e0134b4a
:101c18000d221a700020bde8f081ea1c0021304630
:101c280001f0b0fc3b685b7b3033374607f8023b7a
:101c38003a2373701db900237b550120ebe72a4630
:101c48002146384601f000fc0135adb2f3e701202a
:101c5800e1e700bff4354000c4014020c001402046
:041c6800b001402067
:020000040000fa
:020000040040ba
:101c6c00f8b50e461446054618b183690bb900f059
:101c7c004bff274b9c4230d16c68a369a360a389ae
:101c8c00190734d52369002b31d0b4f90c30f6b2d6
:101c9c009a04374634d523692068c01a6369834295
:101cac0004dc2146284600f0e9ff30bba368013b69
:101cbc00a36023685a1c22601e7063690130834242
:101ccc0004d0a389db0706d50a2e04d12146284669
:101cdc0000f0d4ff88b93846f8bd0e4b9c4201d1b8
:101cec00ac68cae70c4b9c4208bfec68c5e72146c0
:101cfc002846fff7e5fe0028c7d04ff0ff37eae78c
:101d0c0043f40053a381236e23f400532366c2e7ec
:0c1d1c00e806402008074020c8064020d0
:020000040000fa
:020000040040ba
:101d2800f8b5cd1c25f0030508350c2d38bf0c255a
:101d3800002d064601dba94203d90c23336000209d
:101d4800f8bd01f076fc21490a6814469cb9204f79
:101d58003b6823b92146304601f01afb3860294612
:101d6800304601f015fb431c23d10c233360304669
:101d780001f060fce3e723685b1b17d40b2b03d946
:101d880023601c44256004e06368a2420cbf0b601a
:101d98005360304601f04efc04f10b00231d20f087
:101da8000700c21accd01b1aa350c9e722466468a0
:101db800cce7c41c24f00304a042e3d0211a304627
:101dc80001f0e6fa0130ddd1cfe700bfdc074020a3
:041dd800e0074020c0
:020000040000fa
:020000040040ba
:101ddc0010b582b00023019300282bd0002201a95a
:101dec00fff7dcfe002844d0234b1b7843b301984b
:101dfc004378023bdbb2012b28d943689b6c4bb375
:101e0c004ff6ff71103001f0f1fa01282bd1019b34
:101e1c005a68926c587b904704460198103001f038
:101e2c003afb164b1c70dcb9134b019a5a6000201c
:101e3c0002b010bd114b13221a704ff0ff30f7e7b0
:101e4c000e4b0d221a704ff0ff30f1e70a4b586021
:101e5c000020ede7094b17221a704ff0ff30e7e72f
:101e6c004ff0ff30e4e7054b07221a704ff0ff30bc
:101e7c00dee74ff0ff30dbe7b0014020c00140202f
:020000040000fa
:020000040040ba
:101e8c00244b1b681bb1244b01221a60704710b500
:101e9c00214b00221a60214b1b681b6b1a68b2f194
:101eac00a53f03d15a68b2f1a53f23d01b4b18684c
:101ebc001968343101f014fb194b1b68b3fa83f326
:101ecc00dbb2c3f11f03174a9900c81802eb80005c
:101edc00446864684460194402460832944212d043
:101eec0003eb83030f4a02eb83035b68da680b4b4b
:101efc001a6010bd9a68b2f1a53fd7d1db68b3f177
:101f0c00a53fd3d1d8e760680a46064901eb8202a7
:101f1c005060e5e7bc074020d4074020ac074020c8
:081f2c00c0074020dc05402045
:020000040000fa
:020000040040ba
:101f3400002849d038b50446c26a24490968c96ae8
:101f44008a4238d28169002905db20490968c96ab7
:101f5400c1f10501816102eb82021d4901eb82029c
:101f64006169914205d0194a1268d26ae26201207d
:101f740029e0251d284601f021f938b915490b68d7
:101f8400e06a0122824023ea02030b600f4b1b68c4
:101f9400d86ae0620f4a1168012404fa00f30b4383
:101fa400136000eb80002946094b03eb800001f02d
:101fb400a6fa204607e0054a1268406cd36a9842a4
:101fc4002cbf0020012038bd00207047ac07402002
:081fd400dc054020c00740209d
:020000040000fa
:020000040040ba
:101fdc0008b57f281dd9030203f4fe0343f4807374
:101fec00214a5360c0b2d060204b00225a619a61e2
:101ffc00002935d1db68012b0fd01c4b03221a773b
:10200c005a68012159611278174b5a6305225a629a
:10201c0008bd0004144b5860e6e7144b1b6963b908
:10202c00124b04221a77596801225a6109780e4b17
:10203c005963022119605a62eae772b60b4b596870
:10204c005a69501c58618a5c074b5a631a46136aca
:10205c0013f0050ffbd1044a136a13f0040ffbd0e5
:10206c0000f060ffd4e700bf00800140a0064020d4
:020000040000fa
:020000040040ba
:04207c000020704789
:020000040000fa
:020000040040ba
:1020800001f0ff01102a2bdb10f0070f08d010f829
:10209000013b013a8b422dd010f0070f42b3f6d12d
:1020a000f0b441ea012141ea014122f007047ff046
:1020b00000070023f0e80256083c85ea010586ea9d
:1020c000010685fa47f5a3fa87f586fa47f6a5fad9
:1020d00087f68eb9eed1f0bc01f0ff0102f00702e5
:1020e00032b110f8013b013a83ea010313b1f8d190
:1020f0000020704701387047002d06bf3546033871
:10210000073815f0010f07d1013015f4807f02bfa9
:10211000013015f4c03f0130f0bc0138704700bffa
:020000040000fa
:020000040040ba
:10212000746573742e747874000000002f646576f3
:102130002f6d6d63626c6b61310000002f6d6e74ea
:102140002f6d794472697665310000004b656570ca
:10215000206d6f756e74696e672e2e2e0d0a00004d
:102160005365742044726976652e2e2e0d0a000088
:102170004641494c204d4553534147453a25690d49
:102180000a00000046696c65204f706572617469d1
:102190006f6e2053756363657373210d0a00000031
:1021a00046696c65204f7065726174696f6e20546a
:0c21b000494d454f5554210d0a0000bf59
:020000040000fa
:020000040040ba
:1021bc0038b50546002945d051f8043c0c1f002bbe
:1021cc00b8bfe41801f033fa1f4a1368104633b94c
:1021dc00636014602846bde8384001f029baa34278
:1021ec000cd921686218934204bf1a685b6863605b
:1021fc0004bf521822600460ece713465a680ab117
:10220c00a242fad919685818a0420bd1206801448f
:10221c00581882421960ddd1106852685a60014426
:10222c001960d7e702d90c232b60d3e7206821185b
:10223c008a4204bf11685268626004bf09182160a9
:0c224c005c60c7e738bd00bfdc07402025
:020000040000fa
:020000040040ba
:1022580070b504460e461c4b1d681c4b18680430ac
:1022680000f0aaff48b9194b1a6819490b68d06ad7
:102278000122824023ea02030b60b4f1ff3f00d140
:102288006eb92c44114b1b685c60a5420ed9114bea
:1022980018680e4b1968043100f060fe70bd0b4bd6
:1022a800196804310c4801f028f9f7e70b4b186856
:1022b800064b1968043100f051fe094b1b68a34214
:1022c800ecd9074b1c60e9e7d0074020ac07402059
:1022d800c0074020b407402084074020b0074020b2
:0422e800c4074020c7
:020000040000fa
:020000040040ba
:1022ec008b8973b59d0706460c4607d501f147034c
:1022fc000b600b6101234b6102b070bd01ab6a46f0
:10230c0000f054fd009905463046fff707fd78b9fb
:10231c00b4f90c309a05efd423f0030343f0020315
:10232c00a38104f147032360236101236361e3e785
:10233c000d4bb362a389206043f08003a381009b03
:10234c006361019b20615bb1b4f90e10304601f062
:10235c003df828b1a38923f0030343f00103a381c3
:0c236c00a3891d43a581c7e7c5354000cb
:020000040000fa
:020000040040ba
:10237800f0b583b04ff0ff330193984217d003783c
:10238800cbb143685c682469dcb116460d46044647
:10239800002202734ff6ff7103f1100001f028f8d4
:1023a800012813d007232373019803b0f0bd114b04
:1023b80009221a70f9e70f4b09221a704ff0ff3003
:1023c800f3e7172303734ff0ff30eee763685b68aa
:1023d8001f6901ab32462946a068b84705466068c0
:1023e800103001f05af8002dded025734ff0ff337e
:0823f8000193d9e7c001402068
:020000040000fa
:020000040040ba
:102400001e4b1f4a9342f0b438bf002103d203f899
:10241000011b9342fbd11b4ad2e9000150ea0103a0
:102420004ff0000610d09468034602f10c076cb917
:1024300021b1014403f8016b9942fbd13a46d2e93c
:10244000000150ea0103eed1f0bc704759b101f12f
:102450000c030c38801a1a443b461c1813f8015b15
:1024600025709342f9d111f0030318bf012303eb48
:10247000910107eb81073a46e1e700bf00004020e9
:082480007004402088014000b7
:020000040000fa
:020000040040ba
:10248800f0b583b04ff0ff330193984215d003782d
:10249800bbb143685c68e468ccb116460d46044697
:1024a8004ff6ff7103f1100000f0a2ff012813d0ce
:1024b80007232373019803b0f0bd114b09221a704a
:1024c800f9e70f4b09221a704ff0ff30f3e7172393
:1024d80003734ff0ff30eee763685b68df6801abba
:1024e80032462946a068b84705466068103000f0b3
:1024f800d4ff002dded025734ff0ff330193d9e7c9
:04250800c0014020ae
:020000040000fa
:020000040040ba
:10250c002de9f74380460e46144601f05bf801288e
:10251c000ed1731efe2b0bd88df8046005460027d8
:10252c000df10409af4213d1304603b0bde8f0837e
:10253c00324604f1580301a9404600f0fbfd421c51
:10254c000546ecd1a38943f04003a3810646ebe793
:10255c00a36817f80910013b002ba36004daa269e9
:10256c00934207db0a2905d023685a1c2260197094
:10257c000137d7e722464046fff772fb431cf7d1e1
:02258c00e4e782
:020000040000fa
:020000040040ba
:02258e00704794
:020000040000fa
:020000040040ba
:10259000002838d038b50446426c914238bf114605
:1025a000c26a8a4202d0806c012800d038bde16244
:1025b000a069002802dbc1f10501a16102eb8202e2
:1025c000114901eb820261699142efd1251d284634
:1025d00000f0f6fd38b90d490b68e06a012282402f
:1025e00023ea02030b60e06a084a11680123834072
:1025f0000b43136000eb80002946034b03eb800084
:1026000000f07fffd2e77047dc054020c007402084
:020000040000fa
:020000040040ba
:1026100070b5054600f0fefd95f8454064b2002c0b
:1026200011dd6b6a7bb105f1240606e000f0c4ff02
:10263000013c64b23cb16b6a2bb1304600f0e2f869
:102640000028f5d0f2e7ff2385f8453000f070ff51
:1026500000f0e0fd95f8444064b2002c11dd2b69d8
:102660007bb105f1100606e000f0a6ff013c64b264
:102670003cb12b692bb1304600f0c4f80028f5d0ee
:0e268000f2e7ff2385f8443000f052ff70bdf2
:020000040000fa
:020000040040ba
:02268e00fee765
:020000040000fa
:020000040040ba
:1026900038b5b0f1ff3f1ed0037803b343685a68e2
:1026a000526912b30446002202734ff6ff7103f120
:1026b000100000f0a1fe01281cd163685b685b6913
:1026c000a068984705466068103000f0eafeb5b98a
:1026d0000020207038bd0c4b09221a70fae70a4b13
:1026e00009221a704ff0ff30f4e7172303734ff0fd
:1026f000ff30efe7072323734ff0ff30eae725733e
:0c2700004ff0ff30e6e700bfc0014020b2
:020000040000fa
:020000040040ba
:10270c0038b5b0f1ff3f1ed0037813b343685a6855
:10271c00526a22b30446002202734ff6ff7103f192
:10272c00100000f063fe012821d163685b685b6ace
:10273c00a068984705466068103000f0acfe002d8c
:10274c0012db284638bd0c4b09221a704ff0ff35ae
:10275c00f7e7094b09221a704ff0ff35f1e7172301
:10276c0003734ff0ff35ece701232373e9e70723ed
:0c277c0023734ff0ff35e4e7c00140205c
:020000040000fa
:020000040040ba
:10278800002835d038b50446826c013a8264c06aa4
:10279800616c884200d00ab1002038bd251d28464a
:1027a80000f00afd70b9e26a02eb82039b0011494e
:1027b800cb583bb910480368012101fa02f223ea19
:1027c80002020260606ce062c0f10503a3610a4a7c
:1027d8001168012404fa00f30b43136000eb800036
:1027e8002946044b03eb800000f087fe2046d4e71f
:0c27f80000207047dc054020c007402096
:020000040000fa
:020000040040ba
:1028040038b5c368dc6804f11805284600f0d6fc26
:10281400134b1b68e3b9251d284600f0cffce06a82
:10282400104a1168012383400b43136000eb8000be
:1028340029460d4b03eb800000f061fe0b4b1b6837
:10284400e26adb6a9a4208d90120094b186005e064
:102854002946084800f053fef0e7002038bd00bfc9
:10286400bc074020c0074020dc054020ac074020c6
:08287400d4074020700740204a
:020000040000fa
:020000040040ba
:10287c00f8b51b4b1e68b369074613b9304600f018
:10288c0043f94836d6e90134013b03d53368dbb153
:10289c003668f7e7b4f90c50a5b9124b2566c4e9b4
:1028ac000055a560c4e90335c4e90555082229463d
:1028bc0004f1580000f064fec4e90d55c4e912554a
:1028cc002046f8bd6434dfe70421384600f01cfcd8
:1028dc00044630600028dbd10c233b60f0e700bfde
:0828ec00143640000100ffff5b
:020000040000fa
:020000040040ba
:1028f40070b504461646856b026c5ab903681bb161
:1029040000200135a56370bd8068fff73bff0023fd
:10291400a360f6e76eb9406800f098fd6368226c26
:1029240013446360a268934219d3236863603046fa
:10293400e7e7c06800f08afd226c5242e368134462
:10294400e36021688b4202d2a3681a44e2600db1ad
:10295400022e01d00020d4e7013d0020d1e730460b
:02296400cfe7bb
:020000040000fa
:020000040040ba
:02296600fee78a
:020000040000fa
:020000040040ba
:1029680000282dd030b40446174b1b7d53bb164ba3
:102978001860596000229a6001221a75134b124a96
:1029880004e09068451c9560205cd861586910f097
:10299800020f0fd0906888420cd2586810f4003f9c
:1029a800efd09068451c956034f81000c0f308001b
:1029b800d861ebe7054b02229a60012030bc7047d2
:1029c800002070470020f9e73c04402000800240c6
:020000040000fa
:020000040040ba
:1029d80000b583b000230193164b1b78012b02d05e
:1029e80003b05df804fb144b5b6913f0010ff7d0db
:1029f800114bdb6d0193019b13f0700f0ad00d4b47
:102a080000221a735b68002bead00a4a91680220f8
:102a18009847e5e7019b13f0010fe1d0054b002231
:102a28001a735b68002bdbd0024a91680120984733
:0c2a3800d6e700bf3800402000800740b7
:020000040000fa
:020000040040ba
:102a440038b5174bdd681c681a6822f440321a60e6
:102a540014f4003f0fd015f0020f07d0114b1b6880
:102a640023b1104a51684ff4003098470c4a136858
:102a740043f40033136014f4803f0fd015f0010fba
:102a840007d0084b1b6823b1064a51684ff48030c5
:102a94009847034a136843f48033136038bd00bf7a
:082aa40030180e400000402034
:020000040000fa
:020000040040ba
:042aac0001727047fc
:020000040000fa
:020000040040ba
:102ab000eff30980bff36f8f154b1a681ef0100fec
:102ac00008bf20ed108a20e9f04f10602de90900c1
:102ad0004ff0200072b680f31188bff34f8fbff321
:102ae0006f8f62b6fff7d2f94ff0000080f31188c4
:102af00009bc19680868b0e8f04f1ef0100f08bf55
:102b0000b0ec108a80f30988bff36f8f704700bf65
:042b1000ac074020ae
:020000040000fa
:020000040040ba
:102b1400836910b5044633bbc0e912330365124b15
:102b2400124a1b688262984204bf01238361fff743
:102b3400a3fe60602046fff79ffea0602046fff7db
:102b44009bfe0022e0600421606800f00ff901227e
:102b54000921a06800f00af902221221e06800f0bd
:102b640005f90123a36110bd14364000c5354000aa
:020000040000fa
:020000040040ba
:102b740038b5144b5d682b7863b1044605220146d1
:102b8400114800f057fb70b1a91c204600f0d8fc96
:102b940010b10023184638bdab699a6812685869a9
:102ba40090470346f6e7a91c601d00f0c9fc08b174
:102bb4000023efe7ab699a681268586990470346a7
:0c2bc400e8e700bf4407402078334000e1
:020000040000fa
:020000040040ba
:102bd00070b504460d4600f01dfb124b1a682b68b9
:102be000b3f1ff3f16d061680f480068266886423f
:102bf00001d0914213d9501a834203d800232b608d
:102c0000012408e09b1a0b442b60204600f056fc80
:102c1000002400e0002400f08bfc204670bd01245d
:0c2c2000f9e700bfd0074020c8074020a3
:020000040000fa
:020000040040ba
:102c2c0070b584b0042000f0a3fc044600f0aef9ab
:102c3c0001212046fff734ff0f4d2946204600f0b6
:102c4c00dffc0021204600f0ddfc6e4605f1080398
:102c5c000fcb07c633804ff4fa760025324669460f
:102c6c00204600f0bafa2946204600f0cbfc20465c
:0c2c7c00fef72cf9f2e700bfd434400052
:020000040000fa
:020000040040ba
:102c880038b50b6905460c46dbb118b183690bb939
:102c9800fff73cff0c4b9c4209d16c68b4f90c302f
:102ca8007bb121462846bde83840fef71dbd074bdd
:102cb8009c4201d1ac68f1e7054b9c4208bfec6827
:102cc800ece7002038bd00bfe80640200807402098
:042cd800c8064020ca
:020000040000fa
:020000040040ba
:102cdc00f8b50e46096e8904074614460bd4d51870
:102cec00ac420dd0324614f8011b384600f0b2f954
:102cfc000130f5d10ee023f00303d518ac4201d11d
:102d0c00002009e0324654f8041b384600f0a8fbba
:0a2d1c000130f3d14ff0ff30f8bd95
:020000040000fa
:020000040040ba
:022d2600fee7c6
:020000040000fa
:020000040040ba
:102d280070b50d4d0d4c641ba4100026a64209d1a8
:102d38000b4d0c4cfdf714fa641ba4100026a64298
:102d480005d170bd55f8043b98470136eee755f8b4
:102d5800043b98470136f2e77401400074014000d3
:082d68007401400078014000f5
:020000040000fa
:020000040040ba
:102d7000002310b50446c0e90033836081810366f7
:102d8000c281c0e90433836119460822583000f03b
:102d9000fdfb054b6362054ba362054be362054bec
:102da0002462236310bd00bf57334000f92e40005a
:082db00081324000fd354000b6
:020000040000fa
:020000040040ba
:102db80070b50e46b1f90e10002990b014461d46a4
:102dc80007da00232b60b3891a0610d44ff4806306
:102dd8000ee001aa00f098fa0028f2db029a02f449
:102de8007042a2f500535a425a412a60eee7402346
:082df8000020236010b070bd43
:020000040000fa
:020000040040ba
:102e000010b5054c237833b9044b13b10448aff324
:102e100000800123237010bd28074020000000001f
:102e20000000000008b5034b1bb103490348aff392
:102e3000008008bd000000002c07402000000000ba
:020000040000fa
:020000040040ba
:102e400070b5b9b115460ab1022801d9284670bd3e
:102e50000a4b2bb108461146aff30080284670bddf
:102e60000c468e1814f8010bfff791fbb442f9d110
:102e7000284670bd0d46284670bd00bf000000000a
:020000040000fa
:020000040040ba
:102e80000eb410b59bb01daa6ff0004352f8041b9e
:102e900001900590069303930024074b049301a827
:102ea0001994009200f058fb019b1c701bb0bde808
:0c2eb000104003b0704700bf0802ffff95
:020000040000fa
:020000040040ba
:102ebc002de9f8438046894600f14804002614b9f0
:102ecc003046bde8f883d4e90175013f01d524688b
:102edc00f5e7ab89012b07d9b5f90e30013303d0d7
:0c2eec0029464046c84706436435eee71f
:020000040000fa
:020000040040ba
:102ef8002de9f0411f468b89db0505460c46164631
:102f080005d502230022b1f90e1000f0d9f9a389e2
:102f1800b4f90e1023f48053a38132463b46284669
:082f2800bde8f04100f0bab968
:020000040000fa
:020000040040ba
:102f30000a4a022313770a494b6843f480534b60d3
:102f40001369012b07d0064b01221a6062b6044bad
:102f500003225a62704703220a60f7e7a006402066
:042f600000800140ac
:020000040000fa
:020000040040ba
:102f640030b40d68b5f1ff3f02d000f1080202e071
:102f7400026904e01a4653681c68ac42fad95368e3
:102f84004b6099608a605160086103680133036093
:042f940030bc704796
:020000040000fa
:020000040040ba
:102f980010b504460723037000224262084bc36041
:102fa80001210172026203f10c0181621c33c362c8
:102fb80002764ff4fa7000f0ddfa606110bd00bfd0
:042fc8002021400084
:020000040000fa
:020000040040ba
:102fcc003031323334353637383941424344454653
:102fdc0000303132333435363738396162636465e9
:102fec006600232d302b2000686c4c00656667450d
:032ffc0046470045
:020000040000fa
:020000040040ba
:1030000070b50a4b5d682c7834b10e46a91c0530aa
:1030100000f098fa10b10024204670bd687800f0e6
:1030200089f9307100233360f6e700bf4407402080
:020000040000fa
:020000040040ba
:1030300008b54ff0200372b683f31188bff36f8f8a
:10304000bff34f8f62b6fef7c9fa18b1034b4ff0ca
:1030500080521a60002383f3118808bd04ed00e05c
:020000040000fa
:020000040040ba
:103060009368013b002b10b4936008da9469a34283
:1030700001db0a2903d15df8044bfef7f7bd1368a5
:0e308000581c1060197008465df8044b70472c
:020000040000fa
:020000040040ba
:02308e00fee75b
:020000040000fa
:020000040040ba
:10309000094b5b6913f0e00f0dd0074b4ff48072c2
:1030a0001a605b6913f0010f05d0034b9a695a69e6
:0c30b00012f0010ffad1704700c002407e
:020000040000fa
:020000040040ba
:1030bc00084b1b681b6823b9074b4ff0ff321a6093
:1030cc007047044b1b68db68db685a68024b1a605c
:0c30dc00704700bfb0074020c407402030
:020000040000fa
:020000040040ba
:1030e800094b5b6913f0e00f0dd0074b4ff480726a
:1030f8001a605b6913f0010f05d0034b9a695a698e
:0c31080012f0010ffad170470080024065
:020000040000fa
:020000040040ba
:1031140070b54a1e642555430e4605f17001fef74d
:1031240001fe044640b10021c0e900160c30a06045
:0c31340005f1640200f028fa204670bd8e
:020000040000fa
:020000040040ba
:10314000f0b5094c85b005461e46d4f8e04009b9f3
:103150000a4601a9a047431c01bf002333608a230c
:0c3160002b6005b0f0bd00bf70044020e3
:020000040000fa
:020000040040ba
:10316c00074a136843b10749184488428cbf4ff093
:10317c00ff33106018467047034b1360f3e700bf32
:0c318c00e8074020f0094020f007402038
:020000040000fa
:020000040040ba
:1031980070b569b115464ab140b90c468e18012080
:1031a800fef768ff04f8010ba642f8d1284670bd67
:0831b8000d46284670bd00bf62
:020000040000fa
:020000040040ba
:1031c0000369416882688a60416851605a68824236
:1031d00006d0002202611a68013a1a601868704726
:0631e00082685a60f5e769
:020000040000fa
:020000040040ba
:0a31e6004161c261012303767047c6
:020000040000fa
:020000040040ba
:1031f000074b19680868b0e8f04f80f30988bff3ff
:103200006f8f4ff0000080f311887047aff300809c
:04321000ac074020a7
:020000040000fa
:020000040040ba
:103214004ff0200372b683f31188bff36f8fbff3af
:103224004f8f62b6024a136801331360704700bfc0
:04323400a807402087
:020000040000fa
:020000040040ba
:1032380010b56ab10139841810f8013b11f8012f53
:10324800934203d1a04201d0002bf5d1981a10bdaa
:043258001046fce739
:020000040000fa
:020000040040ba
:10325c0082b001b901a942b14bb113780b6012785d
:10326c00101c18bf012002b070471046fbe76ff02e
:04327c000100f8e76e
:020000040000fa
:020000040040ba
:1032800010b50c46b1f90e1000f01ef8431ca389ce
:1032900015bf606523f4805343f48053a38118bfa6
:0432a000a38110bd39
:020000040000fa
:020000040040ba
:1032a40038b5074c054608461146002222601a46e6
:1032b40000f0baf9431c02d1236803b12b6038bd76
:0432c4006c04402036
:020000040000fa
:020000040040ba
:1032c80038b5074c054608461146002222601a46c2
:1032d80000f0a4f9431c02d1236803b12b6038bd68
:0432e8006c04402012
:020000040000fa
:020000040040ba
:1032ec0038b5074c054608461146002222601a469e
:1032fc0000f094f9431c02d1236803b12b6038bd54
:04330c006c044020ed
:020000040000fa
:020000040040ba
:1033100038b5074c0023054608461146236000f0e7
:103320007df9431c02d1236803b12b6038bd00bf77
:043330006c044020c9
:020000040000fa
:020000040040ba
:1033340001380e2809d8dfe800f00a08080a0a0a4a
:103344000a0808080a0a080a0a000020704701202f
:023354007047c0
:020000040000fa
:020000040040ba
:1033560010b50c46b1f90e10fff7c5ff0028abbf3c
:10336600636da3891b1823f48053acbf6365a381e7
:0233760010bd88
:020000040000fa
:020000040040ba
:103378002f6465762f0000006e766d007364000080
:103388006d6d63626c6b000072616d006d7464003a
:020000040000fa
:020000040040ba
:1033980038b5064c0023054608462360fff7e2fed1
:1033a800431c02d1236803b12b6038bd6c04402054
:020000040000fa
:020000040040ba
:1033b80038b5064c002305460846236000f028f976
:1033c800431c02d1236803b12b6038bd6c04402034
:020000040000fa
:020000040040ba
:1033d80038b5064c002305460846236000f01cf962
:1033e800431c02d1236803b12b6038bd6c04402014
:020000040000fa
:020000040040ba
:1033f80008b54ff6ff73994208bf4ff0ff310068d8
:0e340800fdf7bafc012814bf0020012008bd0a
:020000040000fa
:020000040040ba
:02341600fee7cf
:020000040000fa
:020000040040ba
:1034180010b50c46044b19681831fff79ffd0121c0
:0c3428002046fef715ff10bdac07402049
:020000040000fa
:020000040040ba
:10343400054b1b6823b1044b1a68936c01339364e6
:0c344400014b1868704700bfac07402027
:020000040000fa
:020000040040ba
:103450000a44914200f1ff3300d1704710b511f8d2
:0c346000014b03f8014f9142f9d110bd5f
:020000040000fa
:020000040040ba
:10346c00b2f90c3013f4005f06d143f4005393818e
:0c347c00136e43f400531366fff742b8d0
:020000040000fa
:020000040040ba
:1034880049b1ff2a85bf8a2303600a704ff0ff30d5
:0a34980098bf0120704708467047f6
:020000040000fa
:020000040040ba
:1034a20008b500231a4619460068fdf772ff012885
:0834b20014bf0020012008bd39
:020000040000fa
:020000040040ba
:0234ba00fee72b
:020000040000fa
:020000040040ba
:1034bc00034b1b680360034b1b684360704700bfe2
:0834cc00c8074020d007402092
:020000040000fa
:020000040040ba
:1034d4004750532e747874006d657373616765206b
:0834e40073656e740a0000bf5d
:020000040000fa
:020000040040ba
:1034ec004ff0200372b683f31188bff36f8fbff3d5
:0634fc004f8f62b6fee7ef
:020000040000fa
:020000040040ba
:1035020043684b609a688a605160996008610368f9
:0635120001330360704765
:020000040000fa
:020000040040ba
:1035180010b50446fff77afea46b00f005f8b4fa7c
:0635280084f0400910bd13
:020000040000fa
:020000040040ba
:02352e00fee7b6
:020000040000fa
:020000040040ba
:10353000034a1368013b13600bb983f3118870478a
:04354000a807402078
:020000040000fa
:020000040040ba
:1035440010f8012b11f8013b012a28bf9a42f7d049
:04355400d01a7047d2
:020000040000fa
:020000040040ba
:1035580013460a46014602480068fcf7f1bf00bf5f
:04356800e407402014
:020000040000fa
:020000040040ba
:10356c00024a136801331360704700bfbc07402048
:020000040000fa
:020000040040ba
:10357c00024b01461868fef7d1bb00bfe4074020a0
:020000040000fa
:020000040040ba
:10358c0002440346934200d1704703f8011bf9e74c
:020000040000fa
:020000040040ba
:10359c00034613f8012b002afbd1181a0138704787
:020000040000fa
:020000040040ba
:0c35ac00014b1878704700bfc0014020a0
:020000040000fa
:020000040040ba
:0c35b800014b01221a607047d40740202c
:020000040000fa
:020000040040ba
:0c35c4000149fff779bc00bf892c4000d2
:020000040000fa
:020000040040ba
:0c35d000014b93f8280170477004402064
:020000040000fa
:020000040040ba
:0c35dc004ff400534b600020704700bf0c
:020000040000fa
:020000040040ba
:0b35e8004300504f53495800002e00d4
:020000040000fa
:020000040040ba
:0835f4002f6d6e742f0000bf63
:020000040000fa
:020000040040ba
:0835fc00b1f90e10fff7dabe71
:020000040000fa
:020000040040ba
:083604004ff0ff30704700bfda
:020000040000fa
:020000040040ba
:04360c00c1607047e2
:020000040000fa
:020000040040ba
:04361000017070478e
:020000040000fa
:020000040040ba
:04361400400640200c
:020000040000fa
:020000040040ba
:04361800fff7f4bf05
:020000040000fa
:020000040040ba
:04361c00fff7debf17
:020000040000fa
:020000040040ba
:0436200000f006b8f8
:020000040000fa
:020000040040ba
:0436240000f006b8f4
:020000040000fa
:020000040040ba
:04362800fff7b6bd35
:020000040000fa
:020000040040ba
:04362c00fff708bce0
:020000040000fa
:020000040040ba
:0436300001207047be
:020000040000fa
:020000040040ba
:0436340000207047bb
:020000040000fa
:020000040040ba
:023638007047d9
:020000040000fa
:020000040040ba
:02363a007047d7
:020000040000fa
:020000040040ba
:02363c007047d5
:020000040000fa
:02000004d0002a
:0400000002000000fa
:00000001FF
