:020000040000fa
:020000040040ba
:10000000f0ff45203d0c4000872c40004730400069
:1000100037374000db3740004f3840000000000019
:10002000000000000000000000000000113540004a
:10003000af33400000000000d12d4000513340009c
:10004000af294000af294000af294000652d400096
:10005000af294000af294000af294000af29400040
:10006000af29400000000000af294000af29400048
:10007000af294000af2940005d144000311340001b
:10008000af294000af294000d9174000a50a400021
:10009000af294000b50d4000af294000af29400016
:1000a000af294000af294000af294000af294000f0
:1000b000af294000af294000af294000af294000e0
:1000c000af294000af294000af294000af294000d0
:1000d000af294000af294000af294000af294000c0
:1000e000af294000af294000250f4000af29400054
:1000f000af294000af294000af294000af294000a0
:10010000af294000af294000af294000af2940008f
:10011000af294000000000000000000000000000c7
:10012000af294000af294000f92c4000af29400022
:10013000af294000af294000af294000af2940005f
:10014000af294000af294000af294000af2940004f
:10015000af294000af294000af294000af2940003f
:08016000af294000af29400067
:020000040000fa
:020000040040ba
:10016800f8b500bff8bc08bc9e4670474531400052
:10017800f8b500bff8bc08bc9e4670472131400066
:020000040000fa
:020000040040ba
:10018800700740201c00000000000000a407402069
:1001980014000000000000000000402008000000db
:1001a80000000000e80640202800000000000000d1
:1001b8000800402030000000000000003800402007
:1001c800300000000000000068004020100000001f
:1001d80000000000800040207801000000000000be
:1001e8008c07402018000000010000000002402099
:1001f80040044020e007402000000000400240206a
:1002080000000000000240205c0200000000000026
:10021800e00740200c00000000000000ec07402030
:100228000400000000000000f00740200400000067
:1002380001000000aaaaaaaaf407402004000000ae
:1002480000000000f8074020040000000000000043
:10025800fc074020040000000000000024064020a5
:1002680064000000000000000008402004000000b6
:100278000000000004084020040000000000000006
:100288000808402004000000000000000c0840207e
:1002980004000000000000001008402004000000d6
:1002a80000000000140840200400000000000000c6
:1002b800b80740201400000000000000cc074020d0
:1002c800140000000000000018084020040000008e
:1002d800000000001c08402004000000000000008e
:1002e8003408402001000000000000005c044020a9
:1002f8002c0000000000000035084020010000002c
:1003080000000000880440202c00000000000000cd
:1003180020084020040000000000000024084020bd
:10032800040000000000000028084020040000002d
:10033800000000001007402020000000000000001e
:100348003007402020000000000000005007402037
:1003580020000000000000002c08402004000000dd
:100368000100000088064020880640206000000048
:100378000100000000000000300740205007402026
:1003880010074020000000000000000000000000ee
:100398000000000000000000000000000000000055
:1003a8000000000000000000000000000000000045
:1003b8000000000000000000000000000000000035
:1003c8000000000000000000000000000000000025
:1003d80000000000b80440206c010000010000008b
:1003e80043000000000000000000000000000000c2
:1003f80000000000000000000000000000000000f5
:1004080043000000000000000000000000000000a1
:1004180000000000000000000000000000000000d4
:100428004300000000000000000000000000000081
:1004380000000000000000000000000000000000b4
:100448004300000000000000000000000000000061
:100458000000000000000000000000000000000094
:100468004300000000000000000000000000000041
:100478000000000000000000000000000000000074
:100488004300000000000000000000000000000021
:100498000000000000000000000000000000000054
:1004a8004300000000000000000000000000000001
:1004b8000000000000000000000000000000000034
:1004c800a93740007d35400000000000181b40009f
:1004d80011394000103940001039400010394000ef
:1004e80010394000103940001039400010394000e0
:1004f8001039400010394000ffffffffffffffffea
:10050800ffffffffffff000001004153434949007f
:1005180000000000000000000000000000000000d3
:10052800000000000000000000004153434949005a
:1005380000000000000000000000000000000000b3
:10054800000000000000000000000000b40440208b
:1005580004000000000000003008402004000000f3
:1005680000000000000000000000000022222222fb
:020000040000fa
:020000040040ba
:100578002de9f04f0e4697b015461c46074618b1b0
:1005880083690bb902f052fcb34b9e425cd17e6882
:10059800b389190762d53369002b5fd0002309930b
:1005a80020238df82930dff8b4a230238df82a30c3
:1005b8004ff0ff392b46984613f8012b0ab1252a2c
:1005c800f9d1b8eb050b0bd05b462a4631463846c5
:1005d80002f010fd013000f02381099b5b44099370
:1005e80098f80030002b00f01b810023cde905931b
:1005f80008f10108049307938df853304ff0010b6d
:100608004546052215f8011b944801f0c5fe049bd8
:1006180078bbda0644bf20228df85320180744bf60
:100628002b228df8532098f800202a2a29d0079adf
:10063800454600204ff00a0c294611f8013b303b93
:10064800092b5ed908bb27e0854b9e4201d1be68c5
:100658009ee7844b9e4208bffe6899e731463846bc
:1006680001f0befb002899d04ff0ff3017b0bde86d
:10067800f08fa0eb0a000bfa00f018430490a8468c
:10068800bee754f8042b002a01db079204e052422b
:1006980043f00203079204932b782e2b0bd16b782f
:1006a8002a2b33d154f8043b002b05f10205acbfcb
:1006b8000593cdf81490032229786b4801f06cfe5d
:1006c80040b1694bc01a402303fa00f0049b03436e
:1006d8000135049315f8011b64488df8281006228b
:1006e80001f05afe9df82820692a29d039d8582abd
:1006f80000f0c4801fd8002a00f0de808df8522058
:10070800a2e00cfb023201200d4695e700230135db
:10071800059319464ff00a0c284610f8012b303a79
:10072800092a03d9002bc6d00591c4e70cfb012187
:1007380001230546f0e7632a00f08280642addd1b0
:10074800049a54f8043b110602d4520648bf1bb25f
:10075800002b03da2d225b428df8532044490a22ec
:1007680015e0702a00f0a18060d86f2ac6d10499dc
:1007780054f8043b080602d4490648bf9bb26f2ac6
:100788003b490cbf08220a2200208df85300ddf8ef
:1007980014c0cdf818c0bcf1000fa2bf049820f017
:1007a800040004900df15300804613b9bcf1000f0a
:1007b80009d0b3fbf2fc02fb1c3e9a4211f80ee092
:1007c80008f801ed76d9082a0bd1049bdb0708d578
:1007d800089b059a9a42debf302308f8013c08f1cd
:1007e800ff38a0eb08000890224b009303aa334679
:1007f80004a9384601f00dfa013011d0089b424691
:100808003146384602f0f6fb013009d0049b9907bf
:1008180067d4079b039a9342b8bf13465a1c63d107
:10082800b3895b063ff520af09981fe7752a9ed06c
:10083800782a7ff463af78238df855300e4920e08d
:1008480054f8043b8df852300123089300238df8a7
:1008580053300df15208c7e7300740200e334000ef
:100868005007402010074020143340001833400040
:10087800ec324000fd2f4000fd3240001c498df84d
:100888005520049a54f8043b100602d4500648bf79
:100898009bb2d00744bf42f0200204921bb9049acd
:1008a80022f02002049210226ee7049b43f02003fa
:1008b8000493c0e763467ce708920df1530893e779
:1008c80001230df129023146384602f093fb01302d
:1008d800a6d008f10108079b039a9b1a9845efdbfd
:1008e80097e74ff00008f6e7099a1344099361e681
:0408f800ec3240009e
:020000040000fa
:020000040040ba
:1008fc00002800f0be8070b582b00546b1b1531e21
:10090c00dbb2022b12d814460e4602f0bdfa98b197
:10091c005b4b00221a705b4b1b78a34200f08a8061
:10092c00574b15221a704ff0ff3081e0544b1322b5
:10093c001a704ff0ff307be000be514b03221a704f
:10094c004ff0ff3074e04e4b01221a704ff0ff3025
:10095c006ee04b4b16221a704ff0ff3068e0484b9c
:10096c0007221a704ff0ff3062e0454b07221a70d5
:10097c00454802f020ff4ff0ff3059e0404b172262
:10098c001a7036e03e4b17221a70404802f013ffe3
:10099c004ff0ff3445e03d4802f00dff3ae03c4b90
:1009ac005c70384a52685a6000221a73741d73794d
:1009bc002f2b0bd053b12146354a137b01331373c4
:1009cc0011f8013f2f2b01d0002bf6d13048846059
:1009dc00009b43734ff6ff71103002f097fe012815
:1009ec00c3d12b4b5b689b6c002bc7d0284a507b28
:1009fc009847274b5b681b68002bc3d0244a507b5d
:100a0c00984704461e4b18700d28c4d01f4802f09e
:100a1c00d2fe34b91e4a012111701e4b19705a6056
:100a2c000024194802f0c7fe201c18bf01204042c8
:100a3c0002b070bd6946284602f06cfc002882d0da
:100a4c009df804300bb1a34283d14ff6ff710e48d1
:100a5c0002f05cfe012882d10d4b1b78002b9ed03e
:100a6c00094802f0a8fe064b14221a704ff0ff3012
:100a7c00dee7034b13221a704ff0ff30704700bfb4
:100a8c00e0014020d801402080004020f4014020ab
:080a9c00e4014020d0014020dc
:020000040000fa
:020000040040ba
:100aa40010b5634b1b6a13f4807f04d0614aff21a5
:100ab40011770121517713f0010106d05c4a082017
:100ac4001060042010600720906213f4007f02d0ad
:100ad400584a01201077574a527f8ab9554a127fe3
:100ae40052b2013a032a0bd8dfe802f002541c7810
:100af400504bdb6883b100214e4b188801f0fafba0
:100b04004c4b1b7f5bb2b3f1ff3f6dd0494b1b7f56
:100b14005bb2052b78d010bd0121464b188801f03b
:100b2400e9fbede713f0040fead0424b5a69db68a6
:100b3400013b9a4209d03f4b5968501c58618a5c6a
:100b44003b4b5a633a4b1b6adae73a4b1b699bb936
:100b5400384b5968501c58618a5c354b5a630222e1
:100b64001a6004229a621b6a13f0010f314b14bffe
:100b7400052204221a77e5e772b62d4a042393620c
:100b84002c4b586859694c1c5c61435c536302f0fc
:100b94005dfbd7e713f0020fb2d0264a1369023b7c
:100ba40092699a4216d0224b1c6b224b9868996921
:100bb4004a1c9a6144541b699a42a1d11c4b0222db
:100bc4009a621b6a13f0010f1a4b14bf0522042208
:100bd4001a7795e7164b02221a60e4e700298fd0b2
:100be400144b05221a778be7124a00231377104b14
:100bf400072199620821196004211960136a002be6
:100c040084d0506a984781e70a4b00225a771a77b2
:100c1400074a0721916208211160042111601b6aaf
:100c2400002b3ff478af034a506a984773e700bf3c
:080c340000800140e8064020a9
:020000040000fa
:020000040040ba
:100c3c0008b54f4b98474f4b9847eff3108172b65e
:100c4c004d4ad2f8883043f47003c2f88830bff3b1
:100c5c004f8fbff36f8f01b962b6484b484a5a6049
:100c6c009a6812f0010ffbd0444bdb6813f4c07f81
:100c7c0013d0444b0c221a60404b434a5a609a687a
:100c8c0012f0010ffbd03d4b404a5a609a6812f0ab
:100c9c00010ffbd03e4b3f4a1a60bff34f8fbff39f
:100cac006f8f354cd4f8903223f00103c4f8903296
:100cbc00d4f8943223f00103c4f89432bff34f8f6d
:100ccc00bff36f8f01f026fd334b23f07f03a3603e
:100cdc00324b9847636913f4003f12d1bff34f8f27
:100cec00bff36f8f0022c4f85022bff34f8fbff3b6
:100cfc006f8f626942f400326261bff34f8fbff3b2
:100d0c006f8f1d4b5b6913f4803f29d11a4b002266
:100d1c00c3f88420bff34f8fd3f88030c3f3c906d8
:100d2c00c3f34e335a0143f6e075134802ea050447
:100d3c00334644ea8371c0f86012013bb3f1ff3fc4
:100d4c00f7d1203a12f1200ff0d1bff34f8f0a4a9e
:100d5c00536943f480335361bff34f8fbff36f8fed
:100d6c000f4b98470f4b984702f0eaf8fee700bf8d
:100d7c00553940005539400000ed00e0000c0e40a4
:100d8c000d00005aec0740200c08005a0c07005ac2
:100d9c0000180e40010000a5000040004930400042
:080dac005539400055394000a3
:020000040000fa
:020000040040ba
:100db40010b5584a136b03f0f003126912f0010fd7
:100dc40031d0544a906854494a69c9688a422ad23f
:100dd4006bb9514b5968541c5c6188544d4b1b6969
:100de40013f0020f3fd04b4b02229a6125e04a4b8d
:100df4005968541c5c6121f81200464b1b6913f0be
:100e0400020f30d0434b02229a61434a936992689d
:100e1400934239d2404a1168581c906131f813202a
:100e24003c4bda6015e03b4a126912f0020f1ad00b
:100e3400384a02219161002be7d1374a93699268bd
:100e4400934215d2344a1168581c9061ca5c314be4
:100e5400da60314b9a699b689a4222d02e4b5a69c8
:100e6400db689a4222d02d4b1b78002b42d110bd57
:100e7400294b1b69002b35d0264bff22da60264a0a
:100e84001369013b1361e4e7234b1b69002b29d051
:100e9400204b4ff6ff72da601f4a1369013b13615e
:100ea400d7e71d4b1b69002bd8d120e0194b012239
:100eb4009a6102225a61d6e716494ff080730b609b
:100ec400154b00221a7740f20320886113490a70f7
:100ed4001b6a002bcbd0104a506a98470f4b1b78e3
:100ee40093b9c4e70c4b9a699b689a42b6d10b4bf1
:100ef40001221a70074b1b6913f4007f04d0064bc0
:100f04005a69db689a42d7d0024b4ff400725a6197
:100f1400ade700bf008000405c044020340840205e
:020000040000fa
:020000040040ba
:100f240010b5584a136b03f0f003126912f0010f65
:100f340031d0544a906854494a69c9688a422ad2cd
:100f44006bb9514b5968541c5c6188544d4b1b69f7
:100f540013f0020f3fd04b4b02229a6125e04a4b1b
:100f64005968541c5c6121f81200464b1b6913f04c
:100f7400020f30d0434b02229a61434a936992682c
:100f8400934239d2404a1168581c906131f81320b9
:100f94003c4bda6015e03b4a126912f0020f1ad09a
:100fa400384a02219161002be7d1374a936992684c
:100fb400934215d2344a1168581c9061ca5c314b73
:100fc400da60314b9a699b689a4222d02e4b5a6957
:100fd400db689a4222d02d4b1b78002b42d110bde6
:100fe400294b1b69002b35d0264bff22da60264a99
:100ff4001369013b1361e4e7234b1b69002b29d0e0
:10100400204b4ff6ff72da601f4a1369013b1361ec
:10101400d7e71d4b1b69002bd8d120e0194b0122c7
:101024009a6102225a61d6e716494ff080730b6029
:10103400154b00221a7740f20320886113490a7085
:101044001b6a002bcbd0104a506a98470f4b1b7871
:1010540093b9c4e70c4b9a699b689a42b6d10b4b7f
:1010640001221a70074b1b6913f4007f04d0064b4e
:101074005a69db689a42d7d0024b4ff400725a6126
:10108400ade700bf008005408804402035084020bb
:020000040000fa
:020000040040ba
:101094002de9f04184b0044601914ff00008464622
:1010a4004546504f49e0013ba36323684bb1236994
:1010b4005bb902f0cbfb4ff00108404604b0bde839
:1010c400f08102f045fba060f1e704f1100001f0ab
:1010d40027fd0028edd0434b4ff080521a60bff338
:1010e4004f8fbff36f8fe4e702f0b0fb4ff00008bf
:1010f400e3e702a802f070fb29e084f8445032e0f0
:1011040084f8455035e002f013faa06801f09ef827
:10111400804602f09bfb3ce0204601f007fc00f017
:10112400effd09e0204601f001fc00f0e9fd204656
:1011340002f080fb002840d1012602f0f9f9a36bec
:10114400002bb0d1019b002bced0002ed1d002f0c9
:101154007dfb02f099fb02f0ebf994f844305bb2aa
:10116400b3f1ff3fc9d094f845305bb2b3f1ff3f10
:10117400c6d002f06bfb01a902a801f0b7fe00285b
:10118400d0d1204602f056fb0028c5d02368002b9e
:10119400b9d0019904f1240002f0ccfa204601f000
:1011a400c5fb00f0adfd0028c6d14ff080533b6075
:1011b400bff34f8fbff36f8fbee7b8f1000f3ff45b
:1011c4007caf02f0b5f9616a19b1236b1968c1f1fa
:1011d4000501a06801f06afb02f038fb4ff000083b
:0811e4006be700bf04ed00e021
:020000040000fa
:020000040040ba
:1011ec0010b590b0044603780b2b3bd8dfe803f026
:1011fc0006182f4f3c66763a825b3a89002300939f
:10120c000122c16a806afff773fb18b900be012383
:10121c00237027e000be13213d4801f02ffd21e093
:10122c00c06a00f063ffb0f1ff3f03d100be06239c
:10123c00237017e000be0f21364801f01ffd237a02
:10124c0013b1022323700de0032323700ae0022163
:10125c00c06800f093f96060b0f1ff3f0cbf06234b
:10126c000423237010b010bd037e002bfad0c2698a
:10127c004169406801f00afa2062b0f1ff3f0cbfef
:10128c00062308232370606801f08cfbeae7002139
:10129c00c06800f073f96060b0f1ff3f0cbf06232b
:1012ac0009232370dee7406801f0bafb2061b0f13e
:1012bc00ff3f0cbf062305232370d3e7c2694169a6
:1012cc00406801f06bfa2062b0f1ff3f0cbf0623bf
:1012dc0008232370606801f065fbc3e702f0f0faa5
:1012ec0002460d4903a801f055ff322103a801f075
:1012fc00c5fcb7e71a21094801f0c0fc072323708d
:10130c00b0e71a21064801f0b9fc07232370a9e7be
:10131c006c2440008024400090244000a424400011
:04132c00c024400099
:020000040000fa
:020000040040ba
:1013300038b5484b5b6913f0e0030fd1454b5b694f
:1013400013f0010f1cd1434b5b6913f0020f04d063
:10135000404b1b6913f0020f44d138bddbb23e4c49
:1013600084f82d3002f024f83a4be122da600023b1
:1013700084f82c30636a002b69d0a06a9847dde7b7
:10138000354b93f82c30002bddd03249324b4a6973
:1013900012f0010f13d01a6ad86990420fd98a69e6
:1013a000c2f30802486810f4003f9c69186a00f113
:1013b00001051d6214bf24f810202254e7e7264bd4
:1013c0001a6adb699a42bed3234b002283f82c2091
:1013d000204ae121d1605b6a002bb4d01e4a906a9a
:1013e0009847b0e71c4b1b7d002bb6d01a4b5868b2
:1013f0001c68184b184a04e091684d1c9560615cac
:10140000d961596911f0020f0fd0916888420cd947
:10141000596811f4003fefd091684d1c956034f885
:101420001110c1f30801d961ebe70b4b9a685b68b7
:101430009a4292d3084b00221a75064a0221d160c3
:10144000db68002b89d0044a1069984785e7014b77
:0c1450005b6978e700c002400800402003
:020000040000fa
:020000040040ba
:10145c0038b5484b5b6913f0e0030fd1454b5b6922
:10146c0013f0010f1cd1434b5b6913f0020f04d036
:10147c00404b1b6913f0020f44d138bddbb23e4c1c
:10148c0084f82d3001f0a4ff3a4be122da600023fe
:10149c0084f82c30636a002b69d0a06a9847dde78a
:1014ac00354b93f82c30002bddd03249324b4a6946
:1014bc0012f0010f13d01a6ad86990420fd98a69b9
:1014cc00c2f30802486810f4003f9c69186a00f1e6
:1014dc0001051d6214bf24f810202254e7e7264ba7
:1014ec001a6adb699a42bed3234b002283f82c2064
:1014fc00204ae121d1605b6a002bb4d01e4a906a6d
:10150c009847b0e71c4b1b7d002bb6d01a4b586884
:10151c001c68184b184a04e091684d1c9560615c7e
:10152c00d961596911f0020f0fd0916888420cd91a
:10153c00596811f4003fefd091684d1c956034f858
:10154c001110c1f30801d961ebe70b4b9a685b688a
:10155c009a4292d3084b00221a75064a0221d16096
:10156c00db68002b89d0044a1069984785e7014b4a
:0c157c005b6978e70080024038004020e6
:020000040000fa
:020000040040ba
:1015880030b5c3b004460d46002141914ff4817235
:10159800684602f087f96a4641a9204600f08efca9
:1015a800002876d0419b5b78022b00d195b94ff685
:1015b800ff71394802f0acf8012811d1374b1b787c
:1015c800abb1354802f0f9f8354b12221a704ff0da
:1015d800ff300ae0324b07221a704ff0ff3004e068
:1015e8002f4b07221a704ff0ff3043b030bd2b4b02
:1015f80001221a70419a5a60274802f0def89df8d5
:1016080002302f2b14bf0df102000df103000378f7
:10161800224a82f8203053b1034602f12001fe30fd
:1016280013f8012f01f8012f0ab19842f8d14ff6ab
:10163800ff714198103002f06bf8012814d1184b53
:1016480000221a70419843689b68b3b12a466946dc
:10165800144898470446124b18704198103002f00d
:10166800acf884b90d48c0e70d4b07221a700b4b34
:1016780000221a704ff0ff30b7e7094b17221a7093
:10168800103002f09af8054b00221a704ff0ff3024
:10169800abe74ff0ff30a8e780004020a0004020d3
:0816a800e0014020a8004020f1
:020000040000fa
:020000040040ba
:1016b0002de9f04784b00446884601921d464ff05c
:1016c00000094e46434f39e02a464146204601f084
:1016d000a1fa636a73b938b13e4b4ff080521a6079
:1016e000bff34f8fbff36f8f02f0b2f8012004b049
:1016f000bde8f08704f1240001f014fa0028f3d0cb
:10170000344b4ff080521a60bff34f8fbff36f8f8f
:10171000eae702f09df80020e9e702a802f05ef88f
:101720001ae084f8446023e084f8456026e020460f
:1017300001f0fef800f0e6fa4ff0010901f0fafec0
:10174000a26be36b9a42bfd3022dbdd0019b002b4d
:10175000dfd0b9f1000fe0d002f07af802f096f88d
:1017600001f0e8fe94f844305bb2b3f1ff3fd8d00b
:1017700094f845305bb2b3f1ff3fd5d002f068f882
:1017800001a902a801f0b4fbe8b901f0d3fed4f836
:1017900038a0d4f83c9002f05bf8ca45c7d1019953
:1017a00004f1100001f0c8ff204601f0c1f800f07c
:1017b000a9fa0028c0d14ff080533b60bff34f8f90
:1017c000bff36f8fb8e7204601f0b2f800f09afa45
:0817d00000208ce704ed00e0ad
:020000040000fa
:020000040040ba
:1017d80008b54ff08043da6c1b6c1a4276d040494a
:1017e800097800293dd03f49194000296fd013f4ea
:1017f800f81f2bd013f4801f07d012f4801f04d0d9
:101808003748817841f00101817013f4802f07d0a7
:1018180012f4802f04d03248817841f0020181709f
:1018280013f4803f07d012f4803f04d02c4881780d
:1018380041f00801817013f4202f07d012f4202ff3
:1018480004d027498a7842f004028a70244a002189
:1018580011704ff08041886c224a02438a6401204b
:1018680000e000201e4a527852b31f4a1a403ab389
:101878001e4a1a40cab1002b2bdb13f0804f04d04c
:1018880017498a7862f07f028a7013f4800f04d0b7
:1018980013498a7842f010028a7013f4001f04d0aa
:1018a8000f4a937843f0200393700d4b00225a702f
:1018b8004ff08042916c0c4b0b43936440f0020054
:1018c800074bdb6813b1064a1169984708bd002029
:1018d800c8e703498a7842f040028a70cde700bf22
:1018e800a407402001001f00000060c8000060c07d
:020000040000fa
:020000040040ba
:1018f8002de9f047384b1b68002b67d1374b1f6821
:1019080001371f60bfb1364b1b68bb4220d9002589
:10191800344b1b68db6a03eb83039b00324ad358c2
:10192800022b28bf0125314b1b68002b18bf01254e
:101938002846bde8f0872e4a11682e4b18681060bb
:1019480019602d4a13680133136001f059fddae775
:101958000025dff89c80dff8a890dff88ca021e054
:101968001f4b4ff0ff321a60d2e71d4a1360cfe7d2
:1019780004f1180001f0b0fde06ad9f80020012355
:1019880083401343c9f8003000eb800031460aeb6e
:10199800800001f042ff134b1b68e26adb6a9a423f
:1019a80028bf0125d8f800301b68002bd8d0d8f8fc
:1019b8000030db68dc6863689f42d6d3261d30465a
:1019c80001f08afda36a002bd2d1d5e70b4a136830
:1019d800013313600025abe70408402018084020b5
:1019e8000c084020f4074020240640201c08402012
:1019f800f8074020fc074020100840201408402029
:041a0800080840206a
:020000040000fa
:020000040040ba
:101a0c008a892de9f041054610070c4658d44b68dd
:101a1c00002b05dc0b6c002b02dc0020bde8f081f8
:101a2c00e66a002ef9d0002312f480522f682b6046
:101a3c0032d0606da3895a0705d56368c01a636bf1
:101a4c000bb1236cc01a00230246e66a216a2846b1
:101a5c00b047431ca38906d129681d292cd82a4ad2
:101a6c00ca40d60728d500226260d90422692260b8
:101a7c0004d5421c01d12b6803b96065616b2f60e2
:101a8c000029cad004f14403994202d0284600f040
:101a9c001ffd00206063c1e7216a01232846b0477f
:101aac00411cc7d12b68002bc4d01d2b01d0162b89
:101abc0001d12f60b1e7a38943f04003a381ade7c7
:101acc000f69002fa9d093070e6808bf4b690f60f0
:101adc0018bf0023a6eb07088b60b8f1000f9cdd44
:101aec0043463a46216aa66a2846b047002806dcd7
:101afc00a38943f04003a3814ff0ff308ee70744e6
:0c1b0c00a8eb0008e9e700bf0100402042
:020000040000fa
:020000040040ba
:101b180000202020202020202020282828282820b5
:101b280020202020202020202020202020202020ad
:101b38002088101010101010101010101010101015
:101b48001004040404040404040404101010101005
:101b580010104141414141410101010101010101cf
:101b68000101010101010101010101011010101021
:101b780010104242424242420202020202020202a1
:101b880002020202020202020202020210101010f5
:101b9800200000000000000000000000000000001d
:101ba800000000000000000000000000000000002d
:101bb800000000000000000000000000000000001d
:101bc800000000000000000000000000000000000d
:101bd80000000000000000000000000000000000fd
:101be80000000000000000000000000000000000ed
:101bf80000000000000000000000000000000000dd
:101c080000000000000000000000000000000000cc
:011c180000cb
:020000040000fa
:020000040040ba
:101c1a002de9f04791461f468a680b69ddf8208056
:101c2a009342b8bf1346c9f8003091f843200646dc
:101c3a000c4612b10133c9f800302368990642bf35
:101c4a00d9f800300233c9f80030256815f00605c6
:101c5a0007d104f1190ae368d9f800209b1aab42ac
:101c6a0028dc94f843302268003318bf0123920617
:101c7a002dd404f1430239463046c047013020d002
:101c8a002368e568d9f8002003f00603042b08bf8f
:101c9a00ad1aa36822690cbf25eae57500259342af
:101caa00c4bf9b1aed184ff000091a344d451ad1da
:101cba00002008e00123524639463046c047013029
:101cca0003d14ff0ff30bde8f0870135c3e7e118d3
:101cda005a1c302081f84300224494f8451082f8b7
:101cea0043100233c5e70123224639463046c0472e
:0a1cfa000130e6d009f10109d8e736
:020000040000fa
:020000040040ba
:101d04002de9f04101f014fc2d4b1a68013a1a60d8
:101d14001b68002b4dd12b4b1b680bb9002449e0e9
:101d24000024294e294fdff8b880336803b3f368e1
:101d3400dc6804f1180001f0d1fb251d284601f0f0
:101d4400cdfbe06a3a680123834013433b6000eb18
:101d54008000294608eb800001f061fd1c4b1b68e4
:101d6400e26adb6a9a42e0d31a4b01221a60dce78a
:101d74000cb101f047fb184b1c686cb1154e0125e2
:101d840001e0013c05d0fff7b5fd0028f9d035602e
:101d9400f7e7114b00221a600e4b1c6854b10f4b2d
:101da4004ff080521a60bff34f8fbff36f8f01243f
:101db40000e0002401f04afd2046bde8f08100bfa8
:101dc4000408402000084020b807402008084020ac
:101dd400f40740201c0840201408402004ed00e0d3
:041de4002406402071
:020000040000fa
:020000040040ba
:101de800324b70b51d6806460c4625b1ab6913b970
:101df800284601f01bf82e4b9c420fd16c68b4f9b1
:101e08000c309ab215072cd4d00611d409223260ae
:101e180043f04003a3814ff0ff303ee0254b9c4246
:101e280001d1ac68ebe7244b9c4208bfec68e6e7bd
:101e3800510712d5616b41b104f14403994202d0b4
:101e4800304600f047fb00236363a38923f0240393
:101e5800a3810023636023692360a38943f00803f7
:101e6800a38123694bb9a38903f42073b3f5007fd9
:101e780003d02146304600f0c5fba28912f00103c9
:101e88000cd00023a36063695b42a361236953b943
:101e9800b4f90c3013f08000bad170bd920758bf66
:101ea8006369a360f2e70020f7e700bf2c08402031
:0c1eb80030074020500740201007402059
:020000040000fa
:020000040040ba
:101ec4002de9f04104460f46164601f0f5fc85b2b3
:101ed40005222849204601f03dfbd0b9264b1b784a
:101ee4004bb10534244b93f80c8042469968204644
:101ef40001f030fb18b1214b06221a701ae01e4b78
:101f04003b6044444ff6fb73a3eb08031d44adb29e
:101f140005e01b4b1b7853b1194b5b683b6036b330
:101f2400ff2d0ad9154b06221a70002003e0134b2b
:101f34000d221a700020bde8f081ea1c0021304611
:101f440001f0b2fc3b685b7b3033374607f8023b59
:101f54003a2373701db900237b550120ebe72a4611
:101f64002146384601f002fc0135adb2f3e7012009
:101f7400e1e700bf98234000e4014020e001402055
:041f8400d001402028
:020000040000fa
:020000040040ba
:101f8800f8b50e461446054618b183690bb900f03a
:101f98004dff274b9c4230d16c68a369a360a3898d
:101fa800190734d52369002b31d0b4f90c30f6b2b7
:101fb8009a04374634d523692068c01a6369834276
:101fc80004dc2146284600f0ebff30bba368013b48
:101fd800a36023685a1c22601e7063690130834223
:101fe80004d0a389db0706d50a2e04d1214628464a
:101ff80000f0d6ff88b93846f8bd0e4b9c4201d197
:10200800ac68cae70c4b9c4208bfec68c5e72146a0
:102018002846fff7e5fe0028c7d04ff0ff37eae76c
:1020280043f40053a381236e23f400532366c2e7cd
:0c203800300740205007402010074020d7
:020000040000fa
:020000040040ba
:10204400f8b5cd1c25f0030508350c2d38bf0c253b
:10205400002d064601dba94203d90c23336000207e
:10206400f8bd01f076fc21490a6814469cb9204f5a
:102074003b6823b92146304601f01cfb38602946f1
:10208400304601f017fb431c23d10c233360304648
:1020940001f060fce3e723685b1b17d40b2b03d927
:1020a40023601c44256004e06368a2420cbf0b60fb
:1020b4005360304601f04efc04f10b00231d20f068
:1020c4000700c21accd01b1aa350c9e72246646881
:1020d400cce7c41c24f00304a042e3d0211a304608
:1020e40001f0e8fa0130ddd1cfe700bf2408402039
:0420f4002808402058
:020000040000fa
:020000040040ba
:1020f80010b582b00023019300282bd0002201a93b
:10210800fff7dcfe002844d0234b1b7843b301982b
:102118004378023bdbb2012b28d943689b6c4bb355
:102128004ff6ff71103001f0f3fa01282bd1019b13
:102138005a68926c587b904704460198103001f019
:102148003cfb164b1c70dcb9134b019a5a600020fb
:1021580002b010bd114b13221a704ff0ff30f7e791
:102168000e4b0d221a704ff0ff30f1e70a4b586002
:102178000020ede7094b17221a704ff0ff30e7e710
:102188004ff0ff30e4e7054b07221a704ff0ff309d
:10219800dee74ff0ff30dbe7d0014020e0014020d0
:020000040000fa
:020000040040ba
:1021a800244b1b681bb1244b01221a60704710b5e1
:1021b800214b00221a60214b1b681b6b1a68b2f175
:1021c800a53f03d15a68b2f1a53f23d01b4b18682d
:1021d8001968343101f016fb194b1b68b3fa83f305
:1021e800dbb2c3f11f03174a9900c81802eb80003d
:1021f800446864684460194402460832944212d024
:1022080003eb83030f4a02eb83035b68da680b4b2b
:102218001a6010bd9a68b2f1a53fd7d1db68b3f157
:10222800a53fd3d1d8e760680a46064901eb820288
:102238005060e5e7040840201c084020f4074020cf
:08224800080840202406402094
:020000040000fa
:020000040040ba
:10225000002849d038b50446c26a24490968c96ac9
:102260008a4238d28169002905db20490968c96a98
:10227000c1f10501816102eb82021d4901eb82027d
:102280006169914205d0194a1268d26ae26201205e
:1022900029e0251d284601f023f938b915490b68b6
:1022a000e06a0122824023ea02030b600f4b1b68a5
:1022b000d86ae0620f4a1168012404fa00f30b4364
:1022c000136000eb80002946094b03eb800001f00e
:1022d000a8fa204607e0054a1268406cd36a984283
:1022e0002cbf0020012038bd00207047f40740209b
:0822f0002406402008084020ec
:020000040000fa
:020000040040ba
:1022f80008b57f281dd9030203f4fe0343f4807355
:10230800214a5360c0b2d060204b00225a619a61c2
:10231800002935d1db68012b0fd01c4b03221a771b
:102328005a68012159611278174b5a6305225a627b
:1023380008bd0004144b5860e6e7144b1b6963b9e9
:10234800124b04221a77596801225a6109780e4bf8
:102358005963022119605a62eae772b60b4b596851
:102368005a69501c58618a5c074b5a631a46136aab
:1023780013f0050ffbd1044a136a13f0040ffbd0c6
:1023880000f062ffd4e700bf00800140e80640206b
:020000040000fa
:020000040040ba
:082398002f6d6e742f0000bfd1
:020000040000fa
:020000040040ba
:1023a00001f0ff01102a2bdb10f0070f08d010f806
:1023b000013b013a8b422dd010f0070f42b3f6d10a
:1023c000f0b441ea012141ea014122f007047ff023
:1023d00000070023f0e80256083c85ea010586ea7a
:1023e000010685fa47f5a3fa87f586fa47f6a5fab6
:1023f00087f68eb9eed1f0bc01f0ff0102f00702c2
:1024000032b110f8013b013a83ea010313b1f8d16c
:102410000020704701387047002d06bf354603384d
:10242000073815f0010f07d1013015f4807f02bf86
:10243000013015f4c03f0130f0bc0138704700bfd7
:020000040000fa
:020000040040ba
:10244000746573742e747874000000002f646576d0
:102450002f6d6d63626c6b61320000002f6d6e74c6
:102460002f6d794472697665310000004b656570a7
:10247000206d6f756e74696e672e2e2e0d0a00002a
:102480005365742044726976652e2e2e0d0a000065
:102490004641494c204d4553534147453a25690d26
:1024a0000a00000046696c65204f706572617469ae
:1024b0006f6e2053756363657373210d0a0000000e
:1024c00046696c65204f7065726174696f6e205447
:0c24d000494d454f5554210d0a0000bf36
:020000040000fa
:020000040040ba
:1024dc0038b50546002945d051f8043c0c1f002b9b
:1024ec00b8bfe41801f031fa1f4a1368104633b92b
:1024fc00636014602846bde8384001f027baa34257
:10250c000cd921686218934204bf1a685b68636037
:10251c0004bf521822600460ece713465a680ab1f3
:10252c00a242fad919685818a0420bd1206801446c
:10253c00581882421960ddd1106852685a60014403
:10254c001960d7e702d90c232b60d3e72068211838
:10255c008a4204bf11685268626004bf0918216086
:0c256c005c60c7e738bd00bf24084020b9
:020000040000fa
:020000040040ba
:1025780070b504460e461c4b1d681c4b1868043089
:1025880000f0aaff48b9194b1a6819490b68d06ab4
:102598000122824023ea02030b60b4f1ff3f00d11d
:1025a8006eb92c44114b1b685c60a5420ed9114bc7
:1025b80018680e4b1968043100f060fe70bd0b4bb3
:1025c800196804310c4801f028f9f7e70b4b186833
:1025d800064b1968043100f051fe094b1b68a342f1
:1025e800ecd9074b1c60e9e718084020f4074020a5
:1025f80008084020fc074020cc074020f80740206e
:042608000c0840205a
:020000040000fa
:020000040040ba
:10260c008b8973b59d0706460c4607d501f1470328
:10261c000b600b6101234b6102b070bd01ab6a46cc
:10262c0000f054fd009905463046fff705fd78b9da
:10263c00b4f90c309a05efd423f0030343f00203f2
:10264c00a38104f147032360236101236361e3e762
:10265c000d4bb362a389206043f08003a381009be0
:10266c006361019b20615bb1b4f90e10304601f03f
:10267c003df828b1a38923f0030343f00103a381a0
:0c268c00a3891d43a581c7e7e538400085
:020000040000fa
:020000040040ba
:10269800f0b583b04ff0ff330193984217d0037819
:1026a800cbb143685c682469dcb116460d46044624
:1026b800002202734ff6ff7103f1100001f028f8b1
:1026c800012813d007232373019803b0f0bd114be1
:1026d80009221a70f9e70f4b09221a704ff0ff30e0
:1026e800f3e7172303734ff0ff30eee763685b6887
:1026f8001f6901ab32462946a068b847054660689d
:10270800103001f05af8002dded025734ff0ff335a
:082718000193d9e7e001402024
:020000040000fa
:020000040040ba
:102720001e4b1f4a9342f0b438bf002103d203f876
:10273000011b9342fbd11b4ad2e9000150ea01037d
:102740004ff0000610d09468034602f10c076cb9f4
:1027500021b1014403f8016b9942fbd13a46d2e919
:10276000000150ea0103eed1f0bc704759b101f10c
:102770000c030c38801a1a443b461c1813f8015bf2
:1027800025709342f9d111f0030318bf012303eb25
:10279000910107eb81073a46e1e700bf00004020c6
:0827a000b8044020880140004c
:020000040000fa
:020000040040ba
:1027a800f0b583b04ff0ff330193984215d003780a
:1027b800bbb143685c68e468ccb116460d46044674
:1027c8004ff6ff7103f1100000f0a2ff012813d0ab
:1027d80007232373019803b0f0bd114b09221a7027
:1027e800f9e70f4b09221a704ff0ff30f3e7172370
:1027f80003734ff0ff30eee763685b68df6801ab97
:1028080032462946a068b84705466068103000f08f
:10281800d4ff002dded025734ff0ff330193d9e7a5
:04282800e00140206b
:020000040000fa
:020000040040ba
:10282c002de9f74380460e46144601f05bf801286b
:10283c000ed1731efe2b0bd88df8046005460027b5
:10284c000df10409af4213d1304603b0bde8f0835b
:10285c00324604f1580301a9404600f0fbfd421c2e
:10286c000546ecd1a38943f04003a3810646ebe770
:10287c00a36817f80910013b002ba36004daa269c6
:10288c00934207db0a2905d023685a1c2260197071
:10289c000137d7e722464046fff770fb431cf7d1c0
:0228ac00e4e75f
:020000040000fa
:020000040040ba
:0228ae00704771
:020000040000fa
:020000040040ba
:1028b000002838d038b50446426c914238bf1146e2
:1028c000c26a8a4202d0806c012800d038bde16221
:1028d000a069002802dbc1f10501a16102eb8202bf
:1028e000114901eb820261699142efd1251d284611
:1028f00000f0f6fd38b90d490b68e06a012282400c
:1029000023ea02030b60e06a084a1168012383404e
:102910000b43136000eb80002946034b03eb800060
:1029200000f07fffd2e770472406402008084020cf
:020000040000fa
:020000040040ba
:1029300070b5054600f0fefd95f8454064b2002ce8
:1029400011dd6b6a7bb105f1240606e000f0c4ffdf
:10295000013c64b23cb16b6a2bb1304600f0e2f846
:102960000028f5d0f2e7ff2385f8453000f070ff2e
:1029700000f0e0fd95f8444064b2002c11dd2b69b5
:102980007bb105f1100606e000f0a6ff013c64b241
:102990003cb12b692bb1304600f0c4f80028f5d0cb
:0e29a000f2e7ff2385f8443000f052ff70bdcf
:020000040000fa
:020000040040ba
:0229ae00fee742
:020000040000fa
:020000040040ba
:1029b00038b5b0f1ff3f1ed0037803b343685a68bf
:1029c000526912b30446002202734ff6ff7103f1fd
:1029d000100000f0a1fe01281cd163685b685b69f0
:1029e000a068984705466068103000f0eafeb5b967
:1029f0000020207038bd0c4b09221a70fae70a4bf0
:102a000009221a704ff0ff30f4e7172303734ff0d9
:102a1000ff30efe7072323734ff0ff30eae725731a
:0c2a20004ff0ff30e6e700bfe00140206f
:020000040000fa
:020000040040ba
:102a2c0038b5b0f1ff3f1ed0037813b343685a6832
:102a3c00526a22b30446002202734ff6ff7103f16f
:102a4c00100000f063fe012821d163685b685b6aab
:102a5c00a068984705466068103000f0acfe002d69
:102a6c0012db284638bd0c4b09221a704ff0ff358b
:102a7c00f7e7094b09221a704ff0ff35f1e71723de
:102a8c0003734ff0ff35ece701232373e9e70723ca
:0c2a9c0023734ff0ff35e4e7e001402019
:020000040000fa
:020000040040ba
:102aa800002835d038b50446826c013a8264c06a81
:102ab800616c884200d00ab1002038bd251d284627
:102ac80000f00afd70b9e26a02eb82039b0011492b
:102ad800cb583bb910480368012101fa02f223eaf6
:102ae80002020260606ce062c0f10503a3610a4a59
:102af8001168012404fa00f30b43136000eb800013
:102b08002946044b03eb800000f087fe2046d4e7fb
:0c2b1800002070472406402008084020e0
:020000040000fa
:020000040040ba
:102b240038b5c368dc6804f11805284600f0d6fc03
:102b3400134b1b68e3b9251d284600f0cffce06a5f
:102b4400104a1168012383400b43136000eb80009b
:102b540029460d4b03eb800000f061fe0b4b1b6814
:102b6400e26adb6a9a4208d90120094b186005e041
:102b74002946084800f053fef0e7002038bd00bfa6
:102b8400040840200808402024064020f407402080
:082b94001c084020b807402096
:020000040000fa
:020000040040ba
:102b9c00f8b51b4b1e68b369074613b9304600f0f5
:102bac0043f94836d6e90134013b03d53368dbb130
:102bbc003668f7e7b4f90c50a5b9124b2566c4e991
:102bcc000055a560c4e90335c4e90555082229461a
:102bdc0004f1580000f064fec4e90d55c4e9125527
:102bec002046f8bd6434dfe70421384600f01cfcb5
:102bfc00044630600028dbd10c233b60f0e700bfbb
:082c0c00303940000100ffff18
:020000040000fa
:020000040040ba
:102c140070b504461646856b026c5ab903681bb13d
:102c240000200135a56370bd8068fff73bff0023da
:102c3400a360f6e76eb9406800f098fd6368226c03
:102c440013446360a268934219d3236863603046d7
:102c5400e7e7c06800f08afd226c5242e36813443f
:102c6400e36021688b4202d2a3681a44e2600db18a
:102c7400022e01d00020d4e7013d0020d1e73046e8
:022c8400cfe798
:020000040000fa
:020000040040ba
:022c8600fee767
:020000040000fa
:020000040040ba
:102c880000282dd030b40446174b1b7d53bb164b80
:102c98001860596000229a6001221a75134b124a73
:102ca80004e09068451c9560205cd861586910f074
:102cb800020f0fd0906888420cd2586810f4003f79
:102cc800efd09068451c956034f81000c0f30800f8
:102cd800d861ebe7054b02229a60012030bc7047af
:102ce800002070470020f9e73800402000800240ab
:020000040000fa
:020000040040ba
:102cf80000b583b000230193164b1b78012b02d03b
:102d080003b05df804fb144b5b6913f0010ff7d0b7
:102d1800114bdb6d0193019b13f0700f0ad00d4b23
:102d280000221a735b68002bead00a4a91680220d5
:102d38009847e5e7019b13f0010fe1d0054b00220e
:102d48001a735b68002bdbd0024a91680120984710
:0c2d5800d6e700bf680040200080074064
:020000040000fa
:020000040040ba
:102d640038b5174bdd681c681a6822f440321a60c3
:102d740014f4003f0fd015f0020f07d0114b1b685d
:102d840023b1104a51684ff4003098470c4a136835
:102d940043f40033136014f4803f0fd015f0010f97
:102da40007d0084b1b6823b1064a51684ff48030a2
:102db4009847034a136843f48033136038bd00bf57
:082dc40030180e400000402011
:020000040000fa
:020000040040ba
:042dcc00002070472c
:020000040000fa
:020000040040ba
:102dd000eff30980bff36f8f154b1a681ef0100fc9
:102de00008bf20ed108a20e9f04f10602de909009e
:102df0004ff0200072b680f31188bff34f8fbff3fe
:102e00006f8f62b6fff7d0f94ff0000080f31188a2
:102e100009bc19680868b0e8f04f1ef0100f08bf31
:102e2000b0ec108a80f30988bff36f8f704700bf42
:042e3000f407402043
:020000040000fa
:020000040040ba
:102e3400836910b5044633bbc0e912330365124bf2
:102e4400124a1b688262984204bf01238361fff720
:102e5400a3fe60602046fff79ffea0602046fff7b8
:102e64009bfe0022e0600421606800f00ff901225b
:102e74000921a06800f00af902221221e06800f09a
:102e840005f90123a36110bd30394000e538400045
:020000040000fa
:020000040040ba
:102e940038b5144b5d682b7863b1044605220146ae
:102ea400114800f057fb70b1a91c204600f0d8fc73
:102eb40010b10023184638bdab699a681268586986
:102ec40090470346f6e7a91c601d00f0c9fc08b151
:102ed4000023efe7ab699a68126858699047034684
:0c2ee400e8e700bf8c0740209836400053
:020000040000fa
:020000040040ba
:102ef00070b504460d4600f01dfb124b1a682b6896
:102f0000b3f1ff3f16d061680f480068266886421b
:102f100001d0914213d9501a834203d800232b6069
:102f2000012408e09b1a0b442b60204600f056fc5d
:102f3000002400e0002400f08bfc204670bd01243a
:0c2f4000f9e700bf1808402010084020ee
:020000040000fa
:020000040040ba
:102f4c0070b584b0042000f0a3fc044600f0aef988
:102f5c000121204600f0e0fc0f4d2946204600f0f0
:102f6c00ddfc0021204600f0dbfc6e4605f1080379
:102f7c000fcb07c633804ff4fa76002532466946ec
:102f8c00204600f0bafa2946204600f0c9fc20463b
:0c2f9c00fef726f9f2e700bff437400012
:020000040000fa
:020000040040ba
:102fa80038b50b6905460c46dbb118b183690bb916
:102fb800fff73cff0c4b9c4209d16c68b4f90c300c
:102fc8007bb121462846bde83840fef71bbd074bbc
:102fd8009c4201d1ac68f1e7054b9c4208bfec6804
:102fe800ece7002038bd00bf3007402050074020e4
:042ff800100740205e
:020000040000fa
:020000040040ba
:102ffc00f8b50e46096e8904074614460bd4d5184d
:10300c00ac420dd0324614f8011b384600f0b2f930
:10301c000130f5d10ee023f00303d518ac4201d1f9
:10302c00002009e0324654f8041b384600f0a8fb97
:0a303c000130f3d14ff0ff30f8bd72
:020000040000fa
:020000040040ba
:02304600fee7a3
:020000040000fa
:020000040040ba
:1030480070b50d4d0d4c641ba4100026a64209d185
:103058000b4d0c4cfdf784f8641ba4100026a64207
:1030680005d170bd55f8043b98470136eee755f891
:10307800043b98470136f2e77401400074014000b0
:083088007401400078014000d2
:020000040000fa
:020000040040ba
:10309000002310b50446c0e90033836081810366d4
:1030a000c281c0e90433836119460822583000f018
:1030b000fdfb054b6362054ba362054be362054bc9
:1030c0002462236310bd00bf7736400019324000f0
:0830d000a13540001539400054
:020000040000fa
:020000040040ba
:1030d80070b50e46b1f90e10002990b014461d4681
:1030e80007da00232b60b3891a0610d44ff48063e3
:1030f8000ee001aa00f098fa0028f2db029a02f426
:103108007042a2f500535a425a412a60eee7402322
:083118000020236010b070bd1f
:020000040000fa
:020000040040ba
:1031200010b5054c237833b9044b13b10448aff301
:1031300000800123237010bd7007402000000000b4
:103140000000000008b5034b1bb103490348aff36f
:10315000008008bd0000000074074020000000004f
:020000040000fa
:020000040040ba
:1031600070b5b9b115460ab1022801d9284670bd1b
:103170000a4b2bb108461146aff30080284670bdbc
:103180000c468e1814f8010bfff791fbb442f9d1ed
:10319000284670bd0d46284670bd00bf00000000e7
:020000040000fa
:020000040040ba
:1031a0000eb410b59bb01daa6ff0004352f8041b7b
:1031b00001900590069303930024074b049301a804
:1031c0001994009200f058fb019b1c701bb0bde8e5
:0c31d000104003b0704700bf0802ffff72
:020000040000fa
:020000040040ba
:1031dc002de9f8438046894600f14804002614b9cd
:1031ec003046bde8f883d4e90175013f01d5246868
:1031fc00f5e7ab89012b07d9b5f90e30013303d0b4
:0c320c0029464046c84706436435eee7fb
:020000040000fa
:020000040040ba
:103218002de9f0411f468b89db0505460c4616460d
:1032280005d502230022b1f90e1000f0d9f9a389bf
:10323800b4f90e1023f48053a38132463b46284646
:08324800bde8f04100f0bab945
:020000040000fa
:020000040040ba
:103250000a4a022313770a494b6843f480534b60b0
:103260001369012b07d0064b01221a6062b6044b8a
:1032700003225a62704703220a60f7e7e8064020fb
:043280000080014089
:020000040000fa
:020000040040ba
:1032840030b40d68b5f1ff3f02d000f1080202e04e
:10329400026904e01a4653681c68ac42fad95368c0
:1032a4004b6099608a605160086103680133036070
:0432b40030bc704773
:020000040000fa
:020000040040ba
:1032b80010b504460723037000224262084bc3601e
:1032c80001210172026203f10c0181621c33c362a5
:1032d80002764ff4fa7000f0ddfa606110bd00bfad
:0432e800402440003e
:020000040000fa
:020000040040ba
:1032ec003031323334353637383941424344454630
:1032fc0000303132333435363738396162636465c6
:10330c006600232d302b2000686c4c0065666745e9
:03331c0046470021
:020000040000fa
:020000040040ba
:1033200070b50a4b5d682c7834b10e46a91c053087
:1033300000f098fa10b10024204670bd687800f0c3
:1033400089f9307100233360f6e700bf8c07402015
:020000040000fa
:020000040040ba
:1033500008b54ff0200372b683f31188bff36f8f67
:10336000bff34f8f62b6fef7c7fa18b1034b4ff0a9
:1033700080521a60002383f3118808bd04ed00e039
:020000040000fa
:020000040040ba
:103380009368013b002b10b4936008da9469a34260
:1033900001db0a2903d15df8044bfef7f5bd136884
:0e33a000581c1060197008465df8044b704709
:020000040000fa
:020000040040ba
:0233ae00fee738
:020000040000fa
:020000040040ba
:1033b000094b5b6913f0e00f0dd0074b4ff480729f
:1033c0001a605b6913f0010f05d0034b9a695a69c3
:0c33d00012f0010ffad1704700c002405b
:020000040000fa
:020000040040ba
:1033dc00094b5b6913f0e00f0dd0074b4ff4807273
:1033ec001a605b6913f0010f05d0034b9a695a6997
:0c33fc0012f0010ffad17047008002406f
:020000040000fa
:020000040040ba
:10340800084b1b681b6823b9074b4ff0ff321a6043
:103418007047044b1b68db68db685a68024b1a600c
:0c342800704700bff80740200c0840204f
:020000040000fa
:020000040040ba
:1034340070b54a1e642555430e4605f17001fef72a
:10344400fffd044640b10021c0e900160c30a06025
:0c34540005f1640200f028fa204670bd6b
:020000040000fa
:020000040040ba
:10346000f0b5094c85b005461e46d4f8e04009b9d0
:103470000a4601a9a047431c01bf002333608a23e9
:0c3480002b6005b0f0bd00bfb804402078
:020000040000fa
:020000040040ba
:10348c00074a136843b10749184488428cbf4ff070
:10349c00ff33106018467047034b1360f3e700bf0f
:0c34ac0030084020380a4020380840203a
:020000040000fa
:020000040040ba
:1034b80070b569b115464ab140b90c468e1801205d
:1034c800fff780fc04f8010ba642f8d1284670bd2e
:0834d8000d46284670bd00bf3f
:020000040000fa
:020000040040ba
:1034e0000369416882688a60416851605a68824213
:1034f00006d0002202611a68013a1a601868704703
:0635000082685a60f5e745
:020000040000fa
:020000040040ba
:0a3506004161c261012303767047a2
:020000040000fa
:020000040040ba
:10351000074b19680868b0e8f04f80f30988bff3db
:103520006f8f4ff0000080f311887047aff3008079
:04353000f40740203c
:020000040000fa
:020000040040ba
:103534004ff0200372b683f31188bff36f8fbff38c
:103544004f8f62b6024a136801331360704700bf9d
:04355400f00740201c
:020000040000fa
:020000040040ba
:1035580010b56ab10139841810f8013b11f8012f30
:10356800934203d1a04201d0002bf5d1981a10bd87
:043578001046fce716
:020000040000fa
:020000040040ba
:10357c0082b001b901a942b14bb113780b6012783a
:10358c00101c18bf012002b070471046fbe76ff00b
:04359c000100f8e74b
:020000040000fa
:020000040040ba
:1035a00010b50c46b1f90e1000f01ef8431ca389ab
:1035b00015bf606523f4805343f48053a38118bf83
:0435c000a38110bd16
:020000040000fa
:020000040040ba
:1035c40038b5074c054608461146002222601a46c3
:1035d40000f0b8f9431c02d1236803b12b6038bd55
:0435e400b4044020cb
:020000040000fa
:020000040040ba
:1035e80038b5074c054608461146002222601a469f
:1035f80000f0a2f9431c02d1236803b12b6038bd47
:04360800b4044020a6
:020000040000fa
:020000040040ba
:10360c0038b5074c054608461146002222601a467a
:10361c0000f092f9431c02d1236803b12b6038bd32
:04362c00b404402082
:020000040000fa
:020000040040ba
:1036300038b5074c0023054608461146236000f0c4
:103640007bf9431c02d1236803b12b6038bd00bf56
:04365000b40440205e
:020000040000fa
:020000040040ba
:1036540001380e2809d8dfe800f00a08080a0a0a27
:103664000a0808080a0a080a0a000020704701200c
:0236740070479d
:020000040000fa
:020000040040ba
:1036760010b50c46b1f90e10fff7c5ff0028abbf19
:10368600636da3891b1823f48053acbf6365a381c4
:0236960010bd65
:020000040000fa
:020000040040ba
:103698002f6465762f0000006e766d00736400005d
:1036a8006d6d63626c6b000072616d006d74640017
:020000040000fa
:020000040040ba
:1036b80038b5064c0023054608462360fff7e2feae
:1036c800431c02d1236803b12b6038bdb4044020e9
:020000040000fa
:020000040040ba
:1036d80038b5064c002305460846236000f026f955
:1036e800431c02d1236803b12b6038bdb4044020c9
:020000040000fa
:020000040040ba
:1036f80038b5064c002305460846236000f01af941
:10370800431c02d1236803b12b6038bdb4044020a8
:020000040000fa
:020000040040ba
:1037180008b54ff6ff73994208bf4ff0ff310068b4
:0e372800fdf7b4fc012814bf0020012008bded
:020000040000fa
:020000040040ba
:02373600fee7ac
:020000040000fa
:020000040040ba
:1037380010b50c46044b19681831fff79ffd01219d
:0c3748002046fef715ff10bdf4074020de
:020000040000fa
:020000040040ba
:10375400054b1b6823b1044b1a68936c01339364c3
:0c376400014b1868704700bff4074020bc
:020000040000fa
:020000040040ba
:103770000a44914200f1ff3300d1704710b511f8af
:0c378000014b03f8014f9142f9d110bd3c
:020000040000fa
:020000040040ba
:10378c00b2f90c3013f4005f06d143f4005393816b
:0c379c00136e43f400531366fff742b8ad
:020000040000fa
:020000040040ba
:1037a80049b1ff2a85bf8a2303600a704ff0ff30b2
:0a37b80098bf0120704708467047d3
:020000040000fa
:020000040040ba
:1037c20008b500231a4619460068fdf770ff012864
:0837d20014bf0020012008bd16
:020000040000fa
:020000040040ba
:0237da00fee708
:020000040000fa
:020000040040ba
:1037dc00034b1b680360034b1b684360704700bfbf
:0837ec001008402018084020dd
:020000040000fa
:020000040040ba
:1037f4004750532e747874006d6573736167652048
:0838040073656e740a0000bf39
:020000040000fa
:020000040040ba
:10380c004ff0200372b683f31188bff36f8fbff3b1
:06381c004f8f62b6fee7cb
:020000040000fa
:020000040040ba
:1038220043684b609a688a605160996008610368d6
:0638320001330360704742
:020000040000fa
:020000040040ba
:1038380010b50446fff77afea46b00f005f8b4fa59
:0638480084f0400910bdf0
:020000040000fa
:020000040040ba
:02384e00fee793
:020000040000fa
:020000040040ba
:10385000034a1368013b13600bb983f31188704767
:04386000f00740200d
:020000040000fa
:020000040040ba
:1038640010f8012b11f8013b012a28bf9a42f7d026
:04387400d01a7047af
:020000040000fa
:020000040040ba
:1038780013460a46014602480068fcf779be00bfb5
:043888002c084020a8
:020000040000fa
:020000040040ba
:10388c00024a136801331360704700bf04084020dc
:020000040000fa
:020000040040ba
:10389c00024b01461868fef7cfbb00bf2c08402036
:020000040000fa
:020000040040ba
:1038ac0002440346934200d1704703f8011bf9e729
:020000040000fa
:020000040040ba
:1038bc00034613f8012b002afbd1181a0138704764
:020000040000fa
:020000040040ba
:0c38cc00014b1878704700bfe00140205d
:020000040000fa
:020000040040ba
:0c38d800014b01221a6070471c084020c0
:020000040000fa
:020000040040ba
:0c38e4000149fff779bc00bfa92f40008c
:020000040000fa
:020000040040ba
:0c38f000014b93f828017047b8044020f9
:020000040000fa
:020000040040ba
:0c38fc004ff400534b600020704700bfe9
:020000040000fa
:020000040040ba
:0b3908004300504f53495800002e00b0
:020000040000fa
:020000040040ba
:08391400b1f90e10fff7debe51
:020000040000fa
:020000040040ba
:08391c004ff0ff30704700bfbf
:020000040000fa
:020000040040ba
:043924000172704775
:020000040000fa
:020000040040ba
:04392800c1607047c3
:020000040000fa
:020000040040ba
:04392c00017070476f
:020000040000fa
:020000040040ba
:0439300088064020a5
:020000040000fa
:020000040040ba
:04393400fff7f2bfe8
:020000040000fa
:020000040040ba
:04393800fff7e0bff6
:020000040000fa
:020000040040ba
:04393c0000f006b8d9
:020000040000fa
:020000040040ba
:0439400000f006b8d5
:020000040000fa
:020000040040ba
:04394400fff7b8bd14
:020000040000fa
:020000040040ba
:04394800fff70abcbf
:020000040000fa
:020000040040ba
:04394c00012070479f
:020000040000fa
:020000040040ba
:04395000002070479c
:020000040000fa
:020000040040ba
:023954007047ba
:020000040000fa
:020000040040ba
:023956007047b8
:020000040000fa
:020000040040ba
:023958007047b6
:020000040000fa
:02000004d0002a
:0400000002000000fa
:00000001FF
