:020000040000fa
:020000040040ba
:10000000f8ff452089014000431240005113400091
:1000100055134000571340005913400000000000e2
:10002000000000000000000000000000c3114000bc
:100030005313400000000000c3114000c3114000f2
:10004000c3114000c3114000c3114000c311400060
:10005000c3114000c3114000c3114000c311400050
:10006000c311400000000000c3114000c311400054
:10007000c3114000c3114000c311400059044000a7
:10008000c3114000c3114000c3114000c311400020
:10009000c3114000c3114000c3114000c311400010
:1000a000c3114000c3114000c3114000c311400000
:1000b000c3114000c3114000c3114000c3114000f0
:1000c000c3114000c3114000c3114000c3114000e0
:1000d000c3114000c3114000c3114000c3114000d0
:1000e000c3114000c3114000c3114000c3114000c0
:1000f000c3114000c3114000c3114000c3114000b0
:10010000c3114000c3114000c3114000c31140009f
:10011000c3114000000000000000000000000000cb
:10012000c3114000c3114000c3114000c31140007f
:10013000c3114000c311400000000000c311400083
:10014000c3114000c3114000c3114000c31140005f
:10015000c3114000c3114000c3114000c31140004f
:08016000c3114000c31140006f
:020000040000fa
:020000040040ba
:10016800f8b500bff8bc08bc9e4670472d0f40008c
:10017800f8b500bff8bc08bc9e467047090f4000a0
:020000040000fa
:020000040040ba
:1001880008b54f4b98474f4b9847eff3108172b61d
:100198004d4ad2f8883043f47003c2f88830bff370
:1001a8004f8fbff36f8f01b962b6484b484a5a6008
:1001b8009a6812f0010ffbd0444bdb6813f4c07f40
:1001c80013d0444b0c221a60404b434a5a609a6839
:1001d80012f0010ffbd03d4b404a5a609a6812f06a
:1001e800010ffbd03e4b3f4a1a60bff34f8fbff35e
:1001f8006f8f354cd4f8903223f00103c4f8903255
:10020800d4f8943223f00103c4f89432bff34f8f2b
:10021800bff36f8f00f02cfc334b23f07f03a360f8
:10022800324b9847636913f4003f12d1bff34f8fe5
:10023800bff36f8f0022c4f85022bff34f8fbff374
:100248006f8f626942f400326261bff34f8fbff370
:100258006f8f1d4b5b6913f4803f29d11a4b002225
:10026800c3f88420bff34f8fd3f88030c3f3c90697
:10027800c3f34e335a0143f6e075134802ea050406
:10028800334644ea8371c0f86012013bb3f1ff3f83
:10029800f7d1203a12f1200ff0d1bff34f8f0a4a5d
:1002a800536943f480335361bff34f8fbff36f8fac
:1002b8000f4b98470f4b984700f090fbfee700bfa5
:1002c8005b1340005b13400000ed00e0000c0e40a3
:1002d8000d00005ac80140200c08005a0c07005aab
:1002e80000180e40010000a500004000310e40003b
:0802f8005b1340005b134000a2
:020000040000fa
:020000040040ba
:100300002de9f7431e46504b1d6804460f469046a4
:1003100025b1ab6913b9284600f066fc4b4b9c42f3
:1003200052d16c68b8f1020f06d0b8f1010f00f29b
:100330008780002ec0f284802146284600f0dafc37
:10034000616b41b104f14403994202d0284600f0a8
:10035000fbfa002363630023a3616360a3891b0688
:1003600003d52169284600f0effaa38923f44a63f4
:1003700023f00303b8f1020fa3815dd001ab6a46fd
:100380002146284600f09cfda3891843a0812ebb7e
:10039000009e304600f0a4ff0746002847d1ddf854
:1003a0000090b1453cd14ff0ff30a38943f00203e8
:1003b000a3810023a36004f1470323602361012389
:1003c000636103b0bde8f083214b9c4201d1ac686e
:1003d000a8e7204b9c4208bfec68a3e7002fd8d0c9
:1003e000ab6913b9284600f0fffbb8f1010f08bf55
:1003f000a389276004bf43f00103a381a38913f0fd
:100400000800c4e9047619d013f0010018bf764241
:100410004ff000031dbfa360a6611846a660d0e799
:10042000484600f05dff07460028bcd04e46a38931
:1004300043f08003a381d3e70020b6e7a060c0e7c4
:100440004ff0ff30bde700bfd00140206c014020dd
:080450008c0140204c0140200a
:020000040000fa
:020000040040ba
:1004580038b5484b5b6913f0e0030fd1454b5b6936
:1004680013f0010f1cd1434b5b6913f0020f04d04a
:10047800404b1b6913f0020f44d138bddbb23e4c30
:1004880084f82d3000f0ecfd3a4be122da600023cd
:1004980084f82c30636a002b69d0a06a9847dde79e
:1004a800354b93f82c30002bddd03249324b4a695a
:1004b80012f0010f13d01a6ad86990420fd98a69cd
:1004c800c2f30802486810f4003f9c69186a00f1fa
:1004d80001051d6214bf24f810202254e7e7264bbb
:1004e8001a6adb699a42bed3234b002283f82c2078
:1004f800204ae121d1605b6a002bb4d01e4a906a81
:100508009847b0e71c4b1b7d002bb6d01a4b586898
:100518001c68184b184a04e091684d1c9560615c92
:10052800d961596911f0020f0fd0916888420cd92e
:10053800596811f4003fefd091684d1c956034f86c
:100548001110c1f30801d961ebe70b4b9a685b689e
:100558009a4292d3084b00221a75064a0221d160aa
:10056800db68002b89d0044a1069984785e7014b5e
:0c0578005b6978e700c0024000004020f2
:020000040000fa
:020000040040ba
:10058400ac0140201c0000000000000000004020de
:100594003000000000000000c801402004000000fa
:1005a4000000000030004020b800000000000000ff
:1005b400cc0140200400000000000000d0014020d5
:1005c4000400000001000000ec004020ec0040208a
:1005d4006000000001000000000000006c014020e9
:1005e4008c0140204c01402000000000000000006d
:1005f40000000000000000000000000000000000f7
:1006040000000000000000000000000000000000e6
:1006140000000000000000000000000000000000d6
:1006240000000000000000000000000000000000c6
:1006340000000000000000004c01402020000000e9
:10064400000000006c0140202000000000000000b9
:100654008c0140202000000000000000d401402054
:100664000400000000000000d80140200400000045
:1006740000000000e800402004000000000000002a
:10068400dc01402004000000000000000000000025
:1006940000000000222222222222222222222222be
:020000040000fa
:020000040040ba
:1006a4008a892de9f041054610070c4658d44b6859
:1006b400002b05dc0b6c002b02dc0020bde8f08174
:1006c400e66a002ef9d0002312f480522f682b60c2
:1006d40032d0606da3895a0705d56368c01a636b6d
:1006e4000bb1236cc01a00230246e66a216a28462d
:1006f400b047431ca38906d129681d292cd82a4a4e
:10070400ca40d60728d500226260d9042269226033
:1007140004d5421c01d12b6803b96065616b2f605d
:100724000029cad004f14403994202d0284600f0bb
:1007340009f900206063c1e7216a01232846b04714
:10074400411cc7d12b68002bc4d01d2b01d0162b04
:1007540001d12f60b1e7a38943f04003a381ade742
:100764000f69002fa9d093070e6808bf4b690f606b
:1007740018bf0023a6eb07088b60b8f1000f9cddbf
:1007840043463a46216aa66a2846b047002806dc52
:10079400a38943f04003a3814ff0ff308ee7074461
:0c07a400a8eb0008e9e700bf01004020be
:020000040000fa
:020000040040ba
:1007b000354b0022c3f81421d3f8141141f0100175
:1007c000c3f81411314903230b674a6703f500137b
:1007d0004b602f4b0b604ff0ff334b650b66c1f83e
:1007e0009030c1f8a0300a614b618a63c1f81821ca
:1007f00001f50071102008671320486748606ff00a
:10080000130008604b650b66c1f89030c1f8a0304a
:100810000a614b618a63c1f8182101f500710b6010
:100820004b650b66c1f89030c1f8a0300a614b618e
:100830008a63c1f8182101f500714ff4c0300867d0
:100840004ff4c00048674ff4c30048606ff4c30022
:1008500008604b650b66c1f89030c1f8a0300a61a2
:100860004b618a63c1f8182101f500710b604b657b
:100870000b66c1f89030c1f8a0300a614b618a6301
:10088000c1f81821704700bf00800840000e0e40dc
:04089000fcffdfff8b
:020000040000fa
:020000040040ba
:10089400f8b5cd1c25f0030508350c2d38bf0c2503
:1008a400002d064601dba94203d90c233360002046
:1008b400f8bd00f051fd21490a6814469cb9204f47
:1008c4003b6823b92146304600f08afc386029464b
:1008d400304600f085fc431c23d10c2333603046a2
:1008e40000f03bfde3e723685b1b17d40b2b03d914
:1008f40023601c44256004e06368a2420cbf0b60c3
:100904005360304600f029fd04f10b00231d20f054
:100914000700c21accd01b1aa350c9e72246646848
:10092400cce7c41c24f00304a042e3d0211a3046cf
:1009340000f056fc0130ddd1cfe700bfd4014020e8
:04094400d801402076
:020000040000fa
:020000040040ba
:1009480038b50546002945d051f8043c0c1f002b4a
:10095800b8bfe41800f0fefc1f4a1368104633b90c
:10096800636014602846bde8384000f0f4bca34238
:100978000cd921686218934204bf1a685b686360e7
:1009880004bf521822600460ece713465a680ab1a3
:10099800a242fad919685818a0420bd1206801441c
:1009a800581882421960ddd1106852685a600144b3
:1009b8001960d7e702d90c232b60d3e720682118e8
:1009c8008a4204bf11685268626004bf0918216036
:0c09d8005c60c7e738bd00bfd4014020c0
:020000040000fa
:020000040040ba
:1009e4002de9f843002000f059f900f087fc00f0ed
:1009f40065fc00f0a7fa1a4fdff87490dff8648002
:100a040019e0184c04f1200601252946204600f07f
:100a1400e7f90134b442f8d1114c04f14006012540
:100a24002946204600f0dcf90134a642f8d14946b3
:100a3400404600f087f94021384600f0a3fa002828
:100a4400f5d03b78202bdcd1074b084a03f120007a
:100a540013f8011f02f8011f8342f9d1d1e700bf47
:100a640034004020740040203300402073004020b4
:040a7400ac00402072
:020000040000fa
:020000040040ba
:100a78001e4b1f4a9342f0b438bf002103d203f83b
:100a8800011b9342fbd11b4ad2e9000150ea010342
:100a98004ff0000610d09468034602f10c076cb9b9
:100aa80021b1014403f8016b9942fbd13a46d2e9de
:100ab800000150ea0103eed1f0bc704759b101f1d1
:100ac8000c030c38801a1a443b461c1813f8015bb7
:100ad80025709342f9d111f0030318bf012303ebea
:100ae800910107eb81073a46e1e700bf000040208b
:080af800ec00402084054000e1
:020000040000fa
:020000040040ba
:100b0000f8b51b4b1e68b369074613b9304600f0b1
:100b10006bf84836d6e90134013b03d53368dbb1c5
:100b20003668f7e7b4f90c50a5b9124b2566c4e94d
:100b30000055a560c4e90335c4e9055508222946d6
:100b400004f1580000f0d4fbc4e90d55c4e9125576
:100b50002046f8bd6434dfe70421384600f09afaf5
:100b6000044630600028dbd10c233b60f0e700bf77
:080b7000341340000100fffff7
:020000040000fa
:020000040040ba
:100b7800184b194a9a629a6e12f0020ffbd0154a66
:100b8800136b23f07003136313469a6e12f0080f69
:100b9800fbd0104a136b23f4407343f48073136340
:100ba80013469a6e12f0080ffbd00a4a136b23f013
:100bb800030343f00203136313469a6e12f0080fff
:100bc800fbd0044b054a1a614ff48012c3f8002188
:100bd800704700bf00060e40013f182000dc83006c
:020000040000fa
:020000040040ba
:100be800836910b5044633bbc0e912330365124b61
:100bf800124a1b688262984204bf01238361fff78f
:100c08007bff60602046fff777ffa0602046fff774
:100c180073ff0022e0600421606800f029f90122d6
:100c28000921a06800f024f902221221e06800f0ee
:100c38001ff90123a36110bd341340000d134000b8
:020000040000fa
:020000040040ba
:100c480030b338b50d46044600f0f4f9d5b10021ab
:100c5800104a05e0936904f8013b01318d4212d036
:100c6800536913f0010ffbd0536913f0e00f0ad159
:100c7800536813f4003fedd09369c3f3080324f8d5
:100c8800023beae729468d4214bf0020012038bd07
:080c98000020704700800240bb
:020000040000fa
:020000040040ba
:100ca00010b5124c23680021586800f011fb23682e
:100cb0000021986800f00cfb00f0fafafff75cffe7
:100cc000fff776fd00f0befa4ff40043084a536088
:100cd000b03a536000f0e0fa00f074fa00f0c0faa5
:100ce00000f032f900f058f810bd00bfd0014020ec
:040cf00000190e4099
:020000040000fa
:020000040040ba
:100cf40038b50b6905460c46dbb118b183690bb9ed
:100d0400fff770ff0c4b9c4209d16c68b4f90c30ae
:100d14007bb121462846bde83840fff7c1bc074bec
:100d24009c4201d1ac68f1e7054b9c4208bfec68da
:100d3400ece7002038bd00bf6c0140208c0140204e
:040d44004c014020fe
:020000040000fa
:020000040040ba
:100d480030b4431e00f11d05002213f8014f224460
:100d5800ab42fad14ff6ff74a41a90f82020c37f53
:100d680003eb02239c4201d030bc70470378202b50
:100d780002d000230b60f7e7022318444478027876
:100d880002eb042241f8042b02331e2bf5d1ebe7ca
:020000040000fa
:020000040040ba
:100d98000f4bd96821f4e0610904090c0d4a0a4394
:100da800da60bff35f8f62b60b4ae02182f80f1357
:100db8004ff4004111605a6a42f480225a625a691b
:100dc80042f010025a615a6a42f400325a6270477d
:0c0dd80000ed00e00000fa0500e100e082
:020000040000fa
:020000040040ba
:100de400f0b130b40446e9b101200f4a651e023c5b
:100df40005e02b5cd361431c81420ed9184653692c
:100e040013f0020ffbd0536813f4003ff1d034f811
:100e14001030c3f30803d361ede7012030bc704701
:0c0e2400002070470120f9e70080024028
:020000040000fa
:020000040040ba
:100e300070b50d4d0d4c641ba4100026a64209d1bf
:100e40000b4d0c4cfff790f9641ba4100026a64232
:100e500005d170bd55f8043b98470136eee755f8cb
:100e6000043b98470136f2e77401400074014000ea
:080e700074014000780140000c
:020000040000fa
:020000040040ba
:100e7800002310b50446c0e900338360818103660e
:100e8800c281c0e90433836119460822583000f052
:100e98002bfa054b6362054ba362054be362054bd6
:100ea8002462236310bd00bfa1114000051040005b
:080eb800ed104000251340007d
:020000040000fa
:020000040040ba
:100ec00070b50e46b1f90e10002990b014461d46bb
:100ed00007da00232b60b3891a0610d44ff480631d
:100ee0000ee001aa00f026f90028f2db029a02f4d3
:100ef0007042a2f500535a425a412a60eee740235d
:080f00000020236010b070bd59
:020000040000fa
:020000040040ba
:100f080010b5054c237833b9044b13b10448aff33b
:100f180000800123237010bdac01402000000000b8
:100f28000000000008b5034b1bb103490348aff3a9
:100f3800008008bd00000000b00140200000000053
:020000040000fa
:020000040040ba
:100f48000d4b4ff486721a6050221a604ff40c62ef
:100f58005a6051221a62094b00229a61da611a62b8
:100f680083f82c205a621a605a609a601a75da60ff
:100f780083f82d20704700bf00c0024000004020c9
:020000040000fa
:020000040040ba
:100f8800c0b138b505460c4a92f82c200ab10020a9
:100f980038bd0c4600f064f8074b002283f82d207a
:100fa8009d61dc611a62012083f82c00034be12269
:100fb8009a60ede7002070470000402000c0024022
:020000040000fa
:020000040040ba
:100fc8002de9f8438046894600f14804002614b903
:100fd8003046bde8f883d4e90175013f01d524689e
:100fe800f5e7ab89012b07d9b5f90e30013303d0ea
:0c0ff80029464046c84706436435eee732
:020000040000fa
:020000040040ba
:101004002de9f0411f468b89db0505460c46164643
:1010140005d502230022b1f90e1000f09bf8a38934
:10102400b4f90e1023f48053a38132463b4628467c
:08103400bde8f04100f06ab8cc
:020000040000fa
:020000040040ba
:10103c00094b5b6913f0e00f0dd0074b4ff4807236
:10104c001a605b6913f0010f05d0034b9a695a695a
:0c105c0012f0010ffad170470080024032
:020000040000fa
:020000040040ba
:10106800094b5b6913f0e00f0dd0074b4ff480720a
:101078001a605b6913f0010f05d0034b9a695a692e
:0c10880012f0010ffad1704700c00240c6
:020000040000fa
:020000040040ba
:1010940070b54a1e642555430e4605f17001fff7ed
:1010a400f7fb044640b10021c0e900160c30a060f3
:0c10b40005f1640200f01af9204670bd3e
:020000040000fa
:020000040040ba
:1010c000074a136843b10749184488428cbf4ff060
:1010d000ff33106018467047034b1360f3e700bfff
:0c10e000dc014020e8034020e801402033
:020000040000fa
:020000040040ba
:1010ec0010b50c46b1f90e1000f030f8431ca38972
:1010fc0015bf606523f4805343f48053a38118bf5c
:04110c00a38110bdee
:020000040000fa
:020000040040ba
:1011100038b5074c054608461146002222601a469b
:1011200000f012f9431c02d1236803b12b6038bdd3
:04113000e800402073
:020000040000fa
:020000040040ba
:1011340038b5074c0023054608461146236000f0e5
:10114400fbf8431c02d1236803b12b6038bd00bff8
:04115400e80040204f
:020000040000fa
:020000040040ba
:1011580038b5074c054608461146002222601a4653
:1011680000f0eaf8431c02d1236803b12b6038bdb4
:04117800e80040202b
:020000040000fa
:020000040040ba
:10117c0038b5074c054608461146002222601a462f
:10118c0000f0daf8431c02d1236803b12b6038bda0
:04119c00e800402007
:020000040000fa
:020000040040ba
:1011a00010b50c46b1f90e10fff7e8ff0028abbff1
:1011b000636da3891b1823f48053acbf6365a381bf
:0211c00010bd60
:020000040000fa
:020000040040ba
:0211c200fee746
:020000040000fa
:020000040040ba
:1011c400054b064ac3f88420d3f8842042f4c06255
:1011d400c3f88420704700bf0040054003000900a5
:020000040000fa
:020000040040ba
:1011e40038b5064c0023054608462360fff766ff22
:1011f400431c02d1236803b12b6038bde8004020b2
:020000040000fa
:020000040040ba
:1012040038b5064c002305460846236000f092f8e2
:10121400431c02d1236803b12b6038bde800402091
:020000040000fa
:020000040040ba
:1012240058b952b138b50c46012529462046fff776
:0e12340009fd0028f9d0012038bd00207047c8
:020000040000fa
:020000040040ba
:02124200fee7c5
:020000040000fa
:020000040040ba
:10124400044b00221a609a60034a5a6004221a600e
:0c125400704700bf10e000e0df930400d2
:020000040000fa
:020000040040ba
:10126000054b4ff486721a6050221a604ff40c62dc
:0c1270005a6051221a6270470080024050
:020000040000fa
:020000040040ba
:10127c0038b50d461446012801d0204638bd21460c
:0c128c002846fff7a9fd0028f9d0f6e77e
:020000040000fa
:020000040040ba
:10129800034b044a5a605a6842f4c0625a60704765
:0812a80000c000400300090032
:020000040000fa
:020000040040ba
:1012b000014b024a1a607047000c0e400006000401
:020000040000fa
:020000040040ba
:1012c000024b0522c3f88020704700bf0040054054
:020000040000fa
:020000040040ba
:1012d00000294ff480630cbf02220022fff710b8f0
:020000040000fa
:020000040040ba
:1012e000024b01461868fff7d5ba00bfd001402075
:020000040000fa
:020000040040ba
:1012f00002440346934200d1704703f8011bf9e70b
:020000040000fa
:020000040040ba
:0c130000014b05221a60704700c000403d
:020000040000fa
:020000040040ba
:0c130c000149fff75bbe00bff50c40007c
:020000040000fa
:020000040040ba
:0c1318004ff400534b600020704700bff2
:020000040000fa
:020000040040ba
:08132400b1f90e10fff76cbfd8
:020000040000fa
:020000040040ba
:08132c004ff0ff30704700bfd5
:020000040000fa
:020000040040ba
:04133400ec00402069
:020000040000fa
:020000040040ba
:04133800fff7f8bf04
:020000040000fa
:020000040040ba
:04133c00fff7ecbf0c
:020000040000fa
:020000040040ba
:0413400000f004b8fd
:020000040000fa
:020000040040ba
:04134400fff76ebf82
:020000040000fa
:020000040040ba
:04134800fff798bf54
:020000040000fa
:020000040040ba
:04134c0000207047c6
:020000040000fa
:020000040040ba
:02135000fee7b6
:020000040000fa
:020000040040ba
:02135200fee7b4
:020000040000fa
:020000040040ba
:02135400fee7b2
:020000040000fa
:020000040040ba
:02135600fee7b0
:020000040000fa
:020000040040ba
:02135800fee7ae
:020000040000fa
:020000040040ba
:02135a007047da
:020000040000fa
:020000040040ba
:02135c007047d8
:020000040000fa
:020000040040ba
:02135e007047d6
:020000040000fa
:02000004d0002a
:0400000002000000fa
:00000001FF
