:020000040000fa
:020000040040ba
:10000000f0ff4520f915400043204000af25400097
:10001000ab2c40008f2e4000b333400000000000a6
:10002000000000000000000000000000271b40004e
:10003000ef26400000000000271b4000271b400067
:10004000271b4000271b4000271b4000271b4000a8
:10005000271b4000271b4000271b4000271b400098
:10006000271b400000000000271b4000271b40000a
:10007000271b4000271b4000271b4000291b400076
:10008000271b4000271b4000271b4000271b400068
:10009000271b4000271b4000271b4000271b400058
:1000a000271b4000271b4000271b4000271b400048
:1000b000271b4000271b4000271b4000271b400038
:1000c000271b4000271b4000271b4000271b400028
:1000d000271b4000271b4000271b4000271b400018
:1000e000271b4000271b4000271b4000271b400008
:1000f000271b4000271b4000271b4000271b4000f8
:10010000271b4000271b4000271b4000271b4000e7
:10011000271b40000000000000000000000000005d
:10012000271b4000271b4000271b4000271b4000c7
:10013000271b4000271b400000000000271b400039
:10014000271b4000271b4000271b4000271b4000a7
:10015000271b4000271b4000271b4000271b400097
:08016000271b4000271b400093
:020000040000fa
:020000040040ba
:10016800f8b500bff8bc08bc9e4670478d2f40000c
:10017800f8b500bff8bc08bc9e467047692f400020
:020000040000fa
:020000040040ba
:100188002de9f04f55ec104b95b0476a0891814620
:100198000c9211931e9ecde9044547b9102003f037
:1001a800f9f9c0e90177c9f824000760c760d9f8f0
:1001b8002430196859b15a684a60012393408b600a
:1001c800484602f0b8ffd9f8243000221a60002d02
:1001d800bfbf0123336025f000430593a4bf00236c
:1001e8003360059ca84ba3431ad1119a42f20f73ae
:1001f8001360049bc4f31304234300f0ca841f9bb9
:1002080053b9a24b20e0a24b029308331f9a136004
:10021800029815b0bde8f08f9c4b02930333f5e7c5
:100228009ded047bb5ee407bf1ee10fa8ded0a7b77
:100238000cd1119a012313601f9b002b00f0a68498
:10024800944b1f9a1360013b0293e1e713a912aa8a
:100258009ded0a0b484602f0f7f9c4f30a550190e0
:100268001299002d46d00b98c0f31300dde90a233c
:1002780040f07f5343f44013a5f2ff3a002607eeff
:1002880090aa43ec162bb8eee75b9fed794bb7eedf
:10029800087b36ee477b9fed786ba7ee046bb0eedc
:1002a800467b9fed776ba5ee067bfdeec76bb5ee43
:1002b800c07bf1ee10fa16ee90ba08d5b8eee66bf0
:1002c800b4ee476bf1ee10fa18bf0bf1ff3bbbf130
:1002d800160f34d8704b03ebcb0393ed007b9dede9
:1002e8000a6bb4eec76bf1ee10fa01d50bf1ff3bc8
:1002f800002325e0139b01eb030a0af23243202b6b
:1003080017ddc3f14003049a9c400af2124322fa13
:1003180003f3234307ee903ab8ee677b0af1ff3afe
:100328008ded027b0398dde902230126a0f1f87325
:10033800a5e7049ac3f1200302fa03f3eae70123cd
:10034800a1eb0a0a1093baf10103079343bf0023f4
:10035800caf1010a07934ff0000abbf1000f18db3e
:10036800079bcdf834b05b4407930027089b092b03
:1003780066d8052bc4bf043b0893089ba3f102036e
:10038800ccbf00240124032b65d8dfe803f0094b18
:1003980049570023aaeb0b0acbf100070d93e5e7b9
:1003a800002309930c9b002b59dc012306939846e4
:1003b8000c93d9f8245000226a60042202f1140038
:1003c800984269684fd9484602f0a8fbd9f824300a
:1003d80028601b680293b8f10e0f00f2bc80002c55
:1003e80000f0b980bbf1000f40f3e3802a4a0bf01c
:1003f8000f0302ebc3034fea2b1293ed007bd306e6
:1004080040f1d580254b9ded0a5b93ed086b85ee99
:10041800066b8ded046b02f00f0203231f4948e0c1
:100428000123bee7002309930c9b5b4403f10108f9
:1004380006934346012bb8bf0123bae70123f2e72d
:1004480000230124cde90834013b00220693984695
:100458000c921223ade701230993023bf5e70c9bad
:1004680006939846a5e7013169605200a6e700bfe8
:1004780061436f63a787d23fb3c8608b288ac63fa2
:10048800fb799f501344d33f0000f07fd5354000df
:10049800cc354000da354000d022400048324000d8
:1004a800d50704d591ed006b013327ee067b52107a
:1004b8000831002af4d19ded046b86ee077b8deda3
:1004c800047b109a002a00f0a680b7ee006b9ded21
:1004d800047bb4eec67bf1ee10fa40f19c80b8f1d3
:1004e800000f00f09880069a002a30ddb2ee046b07
:1004f80027ee067b8ded047b0bf1ff3101331446ab
:100508009ded046bb1ee0c5b07ee903ab8eee77b1d
:10051800a7ee065b8ded045b0598dde90423a0f1e9
:100528005073002c7ad1b1ee047b36ee476b43ec66
:10053800172bb4eec76bf1ee10fa00f34282b1ee5e
:10054800477bb4eec76bf1ee10fa00f13882dde9b3
:100558000a34cde90434139b002bc0f21b81bbf194
:100568000e0f00f31781894b03ebcb0393ed006b60
:100578000c9b002b80f2b880b8f1000f00f3b48018
:1005880040f01c82b1ee047b26ee076b9ded047be8
:10059800b4eec76bf1ee10fa4446464680f2f68197
:1005a800029d312305f8013b0bf1010bf2e1022317
:1005b80034e72ed0cbf10002744b02f00f0103ebad
:1005c800c10393ed007b9ded0a6b26ee077b8ded55
:1005d8000e7bdde90e346e49cde90434121100209a
:1005e80002233ab900283ff46cafdde90e12cde9d9
:1005f800041266e7d40709d59ded0e6b91ed007bdb
:1006080026ee077b8ded0e7b013301205210083159
:10061800e7e7022355e75946444671e743ec172bb1
:100628005a4b03ebc40313ed024b029b1c44099b7a
:100638004bb3b6ee003bb7ee002b029d83ee045b96
:10064800b2ee043b35ee477bfdeec64b14ee903a16
:10065800b8eee45b303336ee456bb4eec76bf1eec3
:1006680010fa05f8013b38d432ee465bb4eec75bae
:10067800f1ee10fa6fd4a5423ff469af27ee037b81
:1006880026ee036be0e7029a24ee077b2546b2eede
:10069800043bfdeec64b14ee903a303302f8013bb2
:1006a800a242b8eee45b36ee456b1ad1b6ee005bbb
:1006b80037ee054bb4eec46bf1ee10fa4bdc35eeb9
:1006c800477bb4eec76bf1ee10fa7ff540af15f833
:1006d800013c302b05f1ff3201d08b462ae015464c
:1006e800f5e726ee036bd4e79ded047bb2ee044bf1
:1006f800029d87ee065bbdeec55b15ee103a303302
:1007080005f8013b029beb1a9845b8eec53ba3eef2
:10071800467b33d137ee077bb4eec67bf1ee10fa99
:1007280018dcb4ee467bf1ee10fa03d115ee103a60
:10073800db070fd40199484602f0fdfc0023119a0b
:100748002b700bf1010313601f9b002b3ff460ad6e
:100758001d605de5594615f8012c392a05f1ff336e
:1007680006d1029a9a4207d10298302201310270ca
:100778001a7801321a70b0e71d46ece727ee047bc1
:10078800b5ee407bf1ee10fab3d1d3e7d0224000aa
:1007980048324000099a002a00f0bb80089a012ad2
:1007a80000f3a280002e00f09b8003f233433c4606
:1007b8005546079a01211a4448469a44079202f07e
:1007c800c7fe0646002d0bdd079b002b08ddab425c
:1007d800079aa8bf2b46aaeb030aed1ad31a079368
:1007e800f7b1099b002b00f09880002c11dd3146f1
:1007f8002246484601f078ff019a014606464846d7
:1008080001f05ef801990a90484602f094fc0a9bb0
:1008180001933a1b04d00199484601f065ff019005
:100828000121484602f094fe0d9b002b044676dd1c
:100838001a460146484601f057ff089b012b04461b
:1008480070dd0027236904eb8303186902f0e8fbd5
:10085800c0f12000079b184410f01f007dd0c0f1a4
:100868002003042b77ddc0f11c00079b034482445e
:1008780005440793baf1000f05dd52460199484631
:1008880001f03efe0190079b002b05dd21461a462c
:10089800484601f035fe0446109b002b5fd02146e8
:1008a800019802f017fc002859da00230a2201995e
:1008b800484602f080f8099b01900bf1ff3b002ba2
:1008c80000f06e81002331460a22484602f073f890
:1008d800069b002b06467ddc089b022b7add46e052
:1008e800129bc3f1360362e708f1ff34a742bfbf8a
:1008f8000d9be71bdb190d93b6bf27463c1b002455
:10090800b8f1000fb9bfaaeb0805002355464346c6
:100918004fe73c465546099e54e73a467be7089b15
:10092800012b14dc049b93b9059bc3f3130282b912
:10093800aa4f1f402fb1079b01330af1010a079301
:1009480001270d9b002b7ff47daf012082e7002754
:10095800f7e7049ff5e78dd018461c3085e7b8f116
:10096800000f31dc089b022b2eddcdf81880069b8a
:1009780063b921460522484602f01df8014604469f
:10098800019802f0a7fb00283ff70aae0c9b029dd6
:100998006fea030b00272146484602f0ccfb002ee5
:1009a8003ff4c8ae2fb1b74203d03946484602f0eb
:1009b800c2fb3146484602f0befbbbe60024264691
:1009c800e4e78b462646ebe5099bcdf81880002b1b
:1009d80000f0ed80002d05dd31462a46484601f03d
:1009e8008ffd0646002f54d07168484602f096f8ed
:1009f800326902320546920006f10c010c3002f011
:100a08004ffd01222946484601f07afd029b029ad1
:100a180003f10108069b13440c93049b03f00103a4
:100a280037460993064608f1ff3321460198069395
:100a380000f0deff3946049000f1300a019802f018
:100a480049fb324607902146484601f0d7fbc26869
:100a5800054602bb0146019802f03cfb02462946c6
:100a680048460a9202f067fb089b0a9a43ea020189
:100a7800099b0b43454610d1baf1390f29d0079b82
:100a8800002b02dd049b03f1310a069b83f800a0ca
:100a980081e73046bae70122e1e7079b002b04db38
:100aa80008990b4309990b431ed1002aeddd012259
:100ab8000199484601f024fd2146019002f00afb05
:100ac800002803dce1d11af0010fded0baf1390faa
:100ad800d8d1069a3923137015f8013c392b05f142
:100ae800ff3249d0013307e0002a07ddbaf1390f98
:100af800efd0069a0af1010313704ce70c9b08f833
:100b080001ac984520d000230a220199484601f0fb
:100b180052ffb74201904ff000034ff00a023946e6
:100b2800484606d101f047ff0746064608f1010886
:100b380079e701f040ff002307460a22314648467c
:100b480001f039fff1e7002701220199484601f039
:100b5800d7fc2146019002f0bdfa0028bcdc02d186
:100b68001af0010fb8d115f8013c302b05f1ff320e
:100b78007ff411af1546f6e7029b934204d10bf1bf
:100b8800010b3123029ab7e71546a5e7144bfff787
:100b98005bbb1f9b002b7ff436ab124bfff754bb9c
:100ba800069b002b03dc089b022b3ff7e0ae029d5f
:100bb8000198214600f01cff00f1300a029b05f85d
:100bc80001abea1a069b9342bddd00230a22019974
:100bd800484601f0f0fe0190eae700bf0000f07f10
:080be800d9354000cc35400076
:020000040000fa
:020000040040ba
:100bf0002de9f04f2ded028b8bb00c461646ddf83b
:100c000058901f46054602f00dfd036803931846f1
:100c100002f0d4fcd9f800300490073323f0070326
:100c200003f1080294f818b0d4f80080c9f8002045
:100c3000d3e90023c4e912239fedb37b94ed128b1b
:100c4000b0eec86bb4ee476bf1ee10fa27ddb5eeef
:100c5000c08bf1ee10fa02d52d2384f84330ac4b53
:100c60001a1dbbf1470f88bf13460293032323616c
:100c70004ff0000a28f004032360d0460097334663
:100c800008aa2146284601f067f9013040f0fb80b0
:100c90004ff0ff300bb0bdec028bbde8f08fb4ee2f
:100ca000488bf1ee10fa01d79a4bd9e763685a1cca
:100cb0000bf0df0919d10623636048f480632360d9
:100cc00018ee903a002bb6bf2d230023b1ee488bcf
:100cd000b9f1460fd4f804a005930dd0b9f1450f32
:100ce00001d10af1010a022107e0b9f1470fe4d16d
:100cf000002be2d10123dfe7032108ab019307ab0f
:100d00000093524606abb0ee480b2846fff73cfa7c
:100d1000b9f1470f029053d118f0010f50d1029a48
:100d2000089bb9f1470fa3eb020a069a6cd1d31cba
:100d300003db6368934280f29580abf1020b5ffaac
:100d40008bfb531e002b0693b6bfc2f101032b226f
:100d50002d22092b04f1500884f850b084f851205a
:100d60006fdd0df127024ff00a0e93fbfef10efb33
:100d700011303030632b02f1ff3c02f8010c58dcdb
:100d80003031023a0cf8011c04f152030df1270036
:100d90008242194650d3a1eb08080aeb0803baf1c6
:100da000010f236102dc2268d00701d501332361e2
:100db000059b002b3ff462af2d2384f843305de7a1
:100dc000029bb9f1460f03eb0a020cd11b78302bc2
:100dd00007d1b5ee408bf1ee10fa1cbfcaf101034a
:100de0000693069b1a44b5ee408bf1ee10fa00d143
:100df0000892089b9a4292d93021581c0890197089
:100e0000089b9a42f9d88ae7bbf1650f99d9bbf1e3
:100e1000660f29d1002a63681cdd226113b921689d
:100e2000c90702d5013313442361a2654ff00008be
:100e3000bee762460b4698e712f8011b03f8011b58
:100e4000a6e73022134484f8522004f1540184f8b8
:100e50005330a0e713b92168c80701d50233e3e78f
:100e60000123e1e74ff0670b524505db2368226160
:100e7000d907dad5531cd7e7002ad4bfc2f1020341
:100e800001235344d0e723685a0507d42369029a03
:100e900031462846b847013029d1f9e6bbf1650f44
:100ea00040f2d78094ed127bb5ee407bf1ee10fa64
:100eb0003fd10123184a31462846b84701303ff454
:100ec000e7ae069b534502db2368d8070fd5dde963
:100ed000032331462846b84701303ff4d9ae0af122
:100ee000ff394ff0000804f11a0ac14516dc2368e7
:100ef0009b0700f1fd80e068089b9842b8bf184648
:100f0000c8e600bfaff30080ffffffffffffef7fea
:100f10006c334000743340007c3340000123524660
:100f200031462846b84701303ff4b2ae08f1010817
:100f3000dbe7069b002b2bdc0123704a3146284659
:100f4000b84701303ff4a4ae069b5aea030302d12e
:100f50002368d907cbd5dde9032331462846b847b6
:100f600001303ff495ae4ff0000804f11a09069bda
:100f70005b42434501dc534689e701234a4631463b
:100f80002846b84701303ff483ae08f10108eee788
:100f9000a36d5345a8bf5346002b984606dd029a21
:100fa00031462846b84701303ff472ae04f11a03c7
:100fb0004ff0000b28eae878059309e00123059a31
:100fc00031462846b84701303ff462ae0bf1010bc1
:100fd000d4f85890a9eb08035b45efdc069b53451a
:100fe0001adb2368da0717d4069b99451cdbaaebaa
:100ff0000908b8f1000f08dd029a43464a44314619
:101000002846b84701303ff443ae4ff0000928eac4
:10101000e87804f11a0b14e0dde903233146284691
:10102000b8470130e0d133e6aaeb0308e1e701233a
:101030005a4631462846b84701303ff429ae09f1f7
:101040000109069baaeb0303a3eb08034b45eedc67
:101050004de7baf1010f01dcdb0736d50123029a17
:1010600031462846b84701303ff412aedde903238c
:1010700031462846b84701303ff40aae94ed127b62
:10108000b5ee407bf1ee10fa0af1ff3b18d0029a60
:101090005b46013231462846b84701300cd1f7e5ae
:1010a0000123524631462846b84701303ff4f0ad9f
:1010b00009f10109cb45f3dc434604f15002e7e6b0
:1010c0004ff0000904f11a0af4e70123029ae1e75c
:1010d00001234a4631462846b84701303ff4d8ad8f
:1010e00008f10108e368089a9b1a4345f0dc02e71f
:1010f0004ff0000804f11909f4e700bf7c33400009
:020000040000fa
:020000040040ba
:10110000180340201c0000000000000000004020e8
:101110003000000000000000340340200400000004
:101120000000000030004020b80000000000000077
:101130003803402004000000000000003c03402071
:101140000400000001000000580240205802402026
:10115000600000000100000000000000d8024020f4
:10116000f8024020b802402000000000000000000b
:10117000000000000000000000000000000000006f
:10118000000000000000000000000000000000005f
:10119000000000000000000000000000000000004f
:1011a000000000000000000000000000000000003f
:1011b0000000000000000000b802402020000000f5
:1011c00000000000d80240202000000000000000c5
:1011d000f80240202000000000000000ec00402049
:1011e0006c0100000100000043000000000000004e
:1011f00000000000000000000000000000000000ef
:10120000000000000000000043000000000000009b
:1012100000000000000000000000000000000000ce
:10122000000000000000000043000000000000007b
:1012300000000000000000000000000000000000ae
:10124000000000000000000043000000000000005b
:10125000000000000000000000000000000000008e
:10126000000000000000000043000000000000003b
:10127000000000000000000000000000000000006e
:10128000000000000000000043000000000000001b
:10129000000000000000000000000000000000004e
:1012a00000000000000000004300000000000000fb
:1012b000000000000000000000000000000000002e
:1012c0000000000000000000fd34400095324000a6
:1012d00000000000601d4000213640002036400024
:1012e00020364000203640002036400020364000a6
:1012f0002036400020364000203640002036400096
:10130000ffffffffffffffffffffffffffff0000eb
:101310000100415343494900000000000000000063
:1013200000000000000000000000000000000000bd
:101330000000415343494900000000000000000044
:10134000000000000000000000000000000000009d
:1013500000000000400340200400000000000000e6
:10136000440340200400000000000000e80040208a
:1013700004000000000000004803402004000000ba
:1013800000000000000000000000000022222222d5
:020000040000fa
:020000040040ba
:101390002de9f04f9fb00d4614460393064618b151
:1013a00083690bb901f0f2fb8c4b9d425bd17568f0
:1013b000ab89190761d52b69002b5ed000230b93f5
:1013c000dff81c9220238df8313030238df8323035
:1013d0004ff0ff3809f1060a23461f4613f8012b88
:1013e0000ab1252af9d1b7eb040b0bd05b46224694
:1013f0002946304601f026fd013000f0e8800b9bc5
:101400005b440b933b78002b00f0e1800023cde997
:1014100007830137069309938df85b301c934ff0d7
:10142000010b3c46052214f8011b6d4801f0c0f881
:10143000069b68bbda0644bf20228df85b201807a4
:1014400044bf2b228df85b203a782a2a28d0099aab
:101450003c4600200a27214611f8013b303b092b6e
:1014600060d918bb29e05f4b9d4201d1b5689fe769
:101470005d4b9d4208bff5689ae72946304600f06b
:1014800053fe00289ad04ff0ff301fb0bde8f08f18
:10149000a0eb09000bfa00f0184306902746c0e7be
:1014a000039a111d12680391002a01db099204e0de
:1014b000524243f002030992069323782e2b0bd15c
:1014c00063782a2b33d1039b1a1d1b680392002bd0
:1014d000b8bf43460234079303222178434801f002
:1014e00067f840b14023a0eb0a0003fa00f0069b26
:1014f00003430134069314f8011b3d488df8301066
:10150000062201f055f830b303ab00932a46394b5d
:1015100006a93046fff76cfb421c58d00b9b1844c1
:101520000b9059e707fb023201200c4693e700239a
:101530000134079319460a27204610f8012b303a48
:10154000092a03d9002bc7d00791c5e707fb012162
:1015500001230446f0e79df83030ebb90a930df112
:101560005b07244b009305aa2b4606a9304600f0e2
:10157000f3fc01302bd00a9b3a462946304601f055
:1015800061fc013023d0069b99071ed40998059b66
:101590009842b8bf1846bfe78df85a3001230a9326
:1015a0008df85b000df15a07dbe701230df13102e5
:1015b0002946304601f046fc013008d00137099b2e
:1015c000059a9b1a9f42f0dbe0e70027f7e7ab891b
:1015d0005b063ff558af0b9857e700bfd802402095
:1015e0007e334000f8024020b8024020843340009f
:0815f00088334000452e400045
:020000040000fa
:020000040040ba
:1015f80008b54f4b98474f4b9847eff3108172b699
:101608004d4ad2f8883043f47003c2f88830bff3eb
:101618004f8fbff36f8f01b962b6484b484a5a6083
:101628009a6812f0010ffbd0444bdb6813f4c07fbb
:1016380013d0444b0c221a60404b434a5a609a68b4
:1016480012f0010ffbd03d4b404a5a609a6812f0e5
:10165800010ffbd03e4b3f4a1a60bff34f8fbff3d9
:101668006f8f354cd4f8903223f00103c4f89032d0
:10167800d4f8943223f00103c4f89432bff34f8fa7
:10168800bff36f8f01f012f9334b23f07f03a36090
:10169800324b9847636913f4003f12d1bff34f8f61
:1016a800bff36f8f0022c4f85022bff34f8fbff3f0
:1016b8006f8f626942f400326261bff34f8fbff3ec
:1016c8006f8f1d4b5b6913f4803f29d11a4b0022a1
:1016d800c3f88420bff34f8fd3f88030c3f3c90613
:1016e800c3f34e335a0143f6e075134802ea050482
:1016f800334644ea8371c0f86012013bb3f1ff3fff
:10170800f7d1203a12f1200ff0d1bff34f8f0a4ad8
:10171800536943f480335361bff34f8fbff36f8f27
:101728000f4b98470f4b984700f098fbfee700bf18
:10173800533440005334400000ed00e0000c0e40ec
:101748000d00005a340340200c08005a0c07005ab8
:1017580000180e40010000a500004000912e400036
:081768005334400053344000eb
:020000040000fa
:020000040040ba
:101770002de9f7431e46504b1d6804460f46904620
:1017800025b1ab6913b9284601f000fa4b4b9c42d6
:1017900052d16c68b8f1020f06d0b8f1010f00f217
:1017a0008780002ec0f284802146284601f0d4faba
:1017b000616b41b104f14403994202d0284600f024
:1017c000e5ff002363630023a3616360a3891b0615
:1017d00003d52169284600f0d9ffa38923f44a6381
:1017e00023f00303b8f1020fa3815dd001ab6a4679
:1017f0002146284601f094fba3891843a0812ebb03
:10180000009e304601f0cafe0746002847d1ddf8a9
:101810000090b1453cd14ff0ff30a38943f0020363
:10182000a3810023a36004f1470323602361012304
:10183000636103b0bde8f083214b9c4201d1ac68e9
:10184000a8e7204b9c4208bfec68a3e7002fd8d044
:10185000ab6913b9284601f099f9b8f1010f08bf37
:10186000a389276004bf43f00103a381a38913f078
:101870000800c4e9047619d013f0010018bf7642bd
:101880004ff000031dbfa360a6611846a660d0e715
:10189000484601f083fe07460028bcd04e46a38987
:1018a00043f08003a381d3e70020b6e7a060c0e740
:1018b0004ff0ff30bde700bf3c034020d80240207e
:0818c000f8024020b8024020ac
:020000040000fa
:020000040040ba
:1018c8002de9f04f15460a692b699a420c46bcbfb0
:1018d8002c460d46d4f81090d5f81080a36861689e
:1018e80009eb0807bb4285b0b8bf013101f016f912
:1018f80000f1140606eb870e33460022734519d310
:1019080004f1140303eb890305f11402009302ebbd
:10191800880301934ff6ff75019b029293420cd8fe
:10192800002f03dd5ef8043d002b5fd0076105b092
:10193800bde8f08f43f8042be0e7136813ea050cc1
:1019480027d004f1140ab0464ff000095af8041bd6
:1019580001ea05030393d8f8003003ea050b039b5b
:101968000cfb03b34fea114bd8f800104b444fea75
:1019780011490cfb0b9101eb13412b4043ea014346
:1019880048f8043b009b53454fea1149ded8c8f894
:101998000090029bb3f802900432b9f1000f23d0f3
:1019a800336804f11408b4464ff0000ad8f8001060
:1019b800bcf802b0294009fb01b18a442b4043ea34
:1019c8000a434cf8043b58f8043bdcf800101b0ca5
:1019d800294009fb0313009903eb1a4341454fead9
:1019e800134ae3d8ccf80030043695e7013f97e76f
:020000040000fa
:020000040040ba
:1019f8002de9f74f03690c69a3428046c0f28d8038
:101a0800013c01f114074fea840c07eb0c0300f1c9
:101a18001405009305eb0c03019357f8243055f88f
:101a2800242001339a42b2fbf3f636d34ff0000a72
:101a3800be46a946d3464ff6ff705ef8042b02ea6d
:101a4800000306fb03a34fea134a0340abeb03036f
:101a5800120cd9f800b006fb02a213fa8bf34fea76
:101a6800124a02ea000bd9f80020cbeb124202eb33
:101a78002342034043ea024349f8043b009b734571
:101a88004fea224bd9d255f80c3033b9019b043bad
:101a98009d421a4635d3c8f81040404601f01afb5b
:101aa80000282adb013628464ff0000e4ff6ff7c4f
:101ab80057f8042bd0f8009002ea0c03aeeb0303ae
:101ac800120c13fa89f3c2eb194202eb234203ea20
:101ad8000c034fea224e43ea0242009b40f8042bd3
:101ae800bb42e5d255f8242005eb84032ab9043b10
:101af8009d421a460bd3c8f81040304603b0bde8e3
:101b0800f08f1268043b002ac5d1013cc0e7126877
:0e1b1800043b002aefd1013ceae70020eee793
:020000040000fa
:020000040040ba
:021b2600fee7d8
:020000040000fa
:020000040040ba
:101b280038b5484b5b6913f0e0030fd1454b5b694f
:101b380013f0010f1cd1434b5b6913f0020f04d063
:101b4800404b1b6913f0020f44d138bddbb23e4c49
:101b580084f82d3001f01cfb3a4be122da600023b7
:101b680084f82c30636a002b69d0a06a9847dde7b7
:101b7800354b93f82c30002bddd03249324b4a6973
:101b880012f0010f13d01a6ad86990420fd98a69e6
:101b9800c2f30802486810f4003f9c69186a00f113
:101ba80001051d6214bf24f810202254e7e7264bd4
:101bb8001a6adb699a42bed3234b002283f82c2091
:101bc800204ae121d1605b6a002bb4d01e4a906a9a
:101bd8009847b0e71c4b1b7d002bb6d01a4b5868b2
:101be8001c68184b184a04e091684d1c9560615cac
:101bf800d961596911f0020f0fd0916888420cd948
:101c0800596811f4003fefd091684d1c956034f885
:101c18001110c1f30801d961ebe70b4b9a685b68b7
:101c28009a4292d3084b00221a75064a0221d160c3
:101c3800db68002b89d0044a1069984785e7014b77
:0c1c48005b6978e700c00240000040200b
:020000040000fa
:020000040040ba
:101c54008a892de9f041054610070c4658d44b6893
:101c6400002b05dc0b6c002b02dc0020bde8f081ae
:101c7400e66a002ef9d0002312f480522f682b60fc
:101c840032d0606da3895a0705d56368c01a636ba7
:101c94000bb1236cc01a00230246e66a216a284667
:101ca400b047431ca38906d129681d292cd82a4a88
:101cb400ca40d60728d500226260d904226922606e
:101cc40004d5421c01d12b6803b96065616b2f6098
:101cd4000029cad004f14403994202d0284600f0f6
:101ce40053fd00206063c1e7216a01232846b04701
:101cf400411cc7d12b68002bc4d01d2b01d0162b3f
:101d040001d12f60b1e7a38943f04003a381ade77c
:101d14000f69002fa9d093070e6808bf4b690f60a5
:101d240018bf0023a6eb07088b60b8f1000f9cddf9
:101d340043463a46216aa66a2846b047002806dc8c
:101d4400a38943f04003a3814ff0ff308ee707449b
:0c1d5400a8eb0008e9e700bf01004020f8
:020000040000fa
:020000040040ba
:101d6000002020202020202020202828282828206b
:101d70002020202020202020202020202020202063
:101d800020881010101010101010101010101010cb
:101d900010040404040404040404041010101010bb
:101da0001010414141414141010101010101010185
:101db00001010101010101010101010110101010d7
:101dc0001010424242424242020202020202020257
:101dd00002020202020202020202020210101010ab
:101de00020000000000000000000000000000000d3
:101df00000000000000000000000000000000000e3
:101e000000000000000000000000000000000000d2
:101e100000000000000000000000000000000000c2
:101e200000000000000000000000000000000000b2
:101e300000000000000000000000000000000000a2
:101e40000000000000000000000000000000000092
:101e50000000000000000000000000000000000082
:011e60000081
:020000040000fa
:020000040040ba
:101e640070b52ded048b002000f04aff01f0b4fba7
:101e740001f082fb01f096f89fed288a9fed289ae5
:101e8400dfed288a34e0284d2946284800f0dcfe9e
:101e9400274e2b683380274cab68238002212046d1
:101ea40000f0a8ff338807ee103ab8ee477a37ee11
:101eb400487ac7ee087a204bc3ed007a238807eef0
:101ec400103ab8ee477a37ee487ac7ee086a1b4be9
:101ed400c3ed006a67ee897a77eee87a184bc3edb2
:101ee400007ab7eee77a53ec172b164801f0bef9e7
:101ef4004021154801f076f80028c4d0124b1b7815
:101f0400202bc0d1114b124a03f1200013f8011ffa
:101f140002f8011f8342f9d1b5e700bf00007a44fb
:101f24000000af4300002f43ac0040207400402069
:101f340094004020a400402030004020a80040200d
:101f440098004020303540003400402033004020c9
:041f540073004020b6
:020000040000fa
:020000040040ba
:101f58002de9f04791461f468a680b69ddf8208015
:101f68009342b8bf1346c9f8003091f8432006469b
:101f78000c4612b10133c9f800302368990642bff4
:101f8800d9f800300233c9f80030256815f0060585
:101f980007d104f1190ae368d9f800209b1aab426b
:101fa80028dc94f843302268003318bf01239206d6
:101fb8002dd404f1430239463046c047013020d0c1
:101fc8002368e568d9f8002003f00603042b08bf4e
:101fd800ad1aa36822690cbf25eae575002593426e
:101fe800c4bf9b1aed184ff000091a344d451ad199
:101ff800002008e00123524639463046c0470130e8
:1020080003d14ff0ff30bde8f0870135c3e7e11891
:102018005a1c302081f84300224494f8451082f875
:1020280043100233c5e70123224639463046c047ec
:0a2038000130e6d009f10109d8e7f4
:020000040000fa
:020000040040ba
:02204200fee7b7
:020000040000fa
:020000040040ba
:10204400354b0022c3f81421d3f8141141f01001c8
:10205400c3f81411314903230b674a6703f50013ce
:102064004b602f4b0b604ff0ff334b650b66c1f891
:102074009030c1f8a0300a614b618a63c1f818211d
:1020840001f50071102008671320486748606ff05d
:10209400130008604b650b66c1f89030c1f8a0309e
:1020a4000a614b618a63c1f8182101f500710b6064
:1020b4004b650b66c1f89030c1f8a0300a614b61e2
:1020c4008a63c1f8182101f500714ff4c030086724
:1020d4004ff4c00048674ff4c30048606ff4c30076
:1020e40008604b650b66c1f89030c1f8a0300a61f6
:1020f4004b618a63c1f8182101f500710b604b65cf
:102104000b66c1f89030c1f8a0300a614b618a6354
:10211400c1f81821704700bf00800840000e0e402f
:04212400fcffdfffde
:020000040000fa
:020000040040ba
:10212800324b70b51d6806460c4625b1ab6913b92c
:10213800284600f027fd2e4b9c420fd16c68b4f95d
:102148000c309ab215072cd4d00611d4092232606b
:1021580043f04003a3814ff0ff303ee0254b9c4203
:1021680001d1ac68ebe7244b9c4208bfec68e6e77a
:10217800510712d5616b41b104f14403994202d071
:10218800304600f0fffa00236363a38923f0240399
:10219800a3810023636023692360a38943f00803b4
:1021a800a38123694bb9a38903f42073b3f5007f96
:1021b80003d02146304600f033fba28912f0010318
:1021c8000cd00023a36063695b42a361236953b900
:1021d800b4f90c3013f08000bad170bd920758bf23
:1021e8006369a360f2e70020f7e700bf3c034020e3
:0c21f800d8024020f8024020b80240202d
:020000040000fa
:020000040040ba
:102204002de9f84f0d46074611462846144600f0be
:1022140063ff061e08d13146384600f081fc0123d5
:10222400c0e90436bde8f88fa4bf23462c463846df
:102234006168a6bf1d460026012600f071fc2b69cb
:102244002769c66004f1140205f1140602eb87083d
:1022540006eb830e00f114054ff0000a4ff6ff79e8
:1022640052f804bb56f8043b1afa8bfa03ea090144
:102274001b0caaeb0101c3eb1b4303eb214301ea53
:1022840009014fea234ab64541ea0343944645f817
:10229400043be5d84ff6ff74c44504d355f8043d18
:1022a40083b10761bee75cf8041b1afa81f31a14c0
:1022b40002eb1142234043ea02434fea224a45f823
:0822c400043be9e7013fe9e7f3
:020000040000fa
:020000040040ba
:0422cc005802402054
:020000040000fa
:020000040040ba
:1022d000000000000000f03f00000000000024406b
:1022e00000000000000059400000000000408f4046
:1022f000000000000088c34000000000006af840b1
:102300000000000080842e4100000000d0126341d4
:102310000000000084d797410000000065cdcd414a
:10232000000000205fa00242000000e8764837422b
:10233000000000a2941a6d42000040e59c30a242c9
:102340000000901ec4bcd64200003426f56b0c433e
:102350000080e03779c3414300a0d88557347643e5
:1023600000c84e676dc1ab43003d9160e458e14346
:10237000408cb5781daf154450efe2d6e41a4b44bb
:1023800092d54d06cff08044f64ae1c7022db54400
:08239000b49dd9794378ea44b9
:020000040000fa
:020000040040ba
:10239800f8b50e461446054618b183690bb900f026
:1023a800f1fb274b9c4230d16c68a369a360a389d9
:1023b800190734d52369002b31d0b4f90c30f6b2a3
:1023c8009a04374634d523692068c01a6369834262
:1023d80004dc2146284600f0bbfc30bba368013b67
:1023e800a36023685a1c22601e706369013083420f
:1023f80004d0a389db0706d50a2e04d12146284636
:1024080000f0a6fc88b93846f8bd0e4b9c4201d1b5
:10241800ac68cae70c4b9c4208bfec68c5e721468c
:102428002846fff77dfe0028c7d04ff0ff37eae7c0
:1024380043f40053a381236e23f400532366c2e7b9
:0c244800d8024020f8024020b8024020da
:020000040000fa
:020000040040ba
:10245400f8b5cd1c25f0030508350c2d38bf0c2527
:10246400002d064601dba94203d90c23336000206a
:10247400f8bd01f04ef821490a6814469cb9204f72
:102484003b6823b92146304600f0a2ff3860294654
:10249400304600f09dff431c23d10c2333603046ab
:1024a40001f061f8e3e723685b1b17d40b2b03d916
:1024b40023601c44256004e06368a2420cbf0b60e7
:1024c4005360304601f04ff804f10b00231d20f057
:1024d4000700c21accd01b1aa350c9e7224664686d
:1024e400cce7c41c24f00304a042e3d0211a3046f4
:1024f40000f06eff0130ddd1cfe700bf4003402084
:04250400440340202c
:020000040000fa
:020000040040ba
:102508002de9f0470c464fea621a236949680aeb3d
:102518000309a3680746164609f10105ab4233dbf8
:10252800384600f0fbfa0023804600f1140100f160
:102538001002184653452adb20692aeaea7a04f190
:10254800140316f01f0201eb8a0103eb800c22d062
:10255800c2f1200e00201e689640304341f8040b5b
:1025680053f8040b9c4520fa0ef0f4d8086008b123
:1025780009f10205013d3846c8f81050214600f01f
:10258800dafd4046bde8f08701315b00c6e742f856
:10259800040f0133cee7043953f8042b41f8042f14
:0625a8009c45f9d8e6e7ae
:020000040000fa
:020000040040ba
:0225ae00fee746
:020000040000fa
:020000040040ba
:1025b00001f0ff01102a2bdb10f0070f08d010f8f4
:1025c000013b013a8b422dd010f0070f42b3f6d1f8
:1025d000f0b441ea012141ea014122f007047ff011
:1025e00000070023f0e80256083c85ea010586ea68
:1025f000010685fa47f5a3fa87f586fa47f6a5faa4
:1026000087f68eb9eed1f0bc01f0ff0102f00702af
:1026100032b110f8013b013a83ea010313b1f8d15a
:102620000020704701387047002d06bf354603383b
:10263000073815f0010f07d1013015f4807f02bf74
:10264000013015f4c03f0130f0bc0138704700bfc5
:020000040000fa
:020000040040ba
:102650002de9f74359ec108b0e4640f2ff7401212f
:10266000154600f05ffac9f3130314ea195418bfb2
:1026700043f480130193b8f10003074623d0684662
:10268000009300f0b3fa0099d8b1019ac0f1200389
:1026900002fa03f30b43c2407b610192019bbb61d1
:1026a000002b14bf022101213961acb1a4f23344e3
:1026b00004443460c0f135002860384603b0bde8fa
:1026c000f0837961eae701a800f090fa019b7b6151
:1026d000012139612030e8e707eb8103a0f23240a5
:0e26e0003060186900f0a0fcc0eb4110e4e788
:020000040000fa
:020000040040ba
:0226ee00fee705
:020000040000fa
:020000040040ba
:1026f0002de9f843154612f0030206460f4607d0af
:10270000013a214c002354f8222000f058f90746e2
:10271000ad1035d0746a3cb9102000f03fffc0e91d
:10272000014470620460c460d6f82480d8f8084080
:102730004cb940f27121304600f00eff0023c8f87a
:102740000800044603604ff00008eb070ad539463d
:1027500022463046fff7b8f839468146304600f049
:10276000eefc4f466d100bd0206838b9224621464a
:102770003046fff7a9f82060c0f800800446e4e77f
:0c2780003846bde8f88300bf003640007a
:020000040000fa
:020000040040ba
:10278c0038b50546002945d051f8043c0c1f002be8
:10279c00b8bfe41800f0b9fe1f4a1368104633b9ed
:1027ac00636014602846bde8384000f0d8bea342f0
:1027bc000cd921686218934204bf1a685b68636085
:1027cc0004bf521822600460ece713465a680ab141
:1027dc00a242fad919685818a0420bd120680144ba
:1027ec00581882421960ddd1106852685a60014451
:1027fc001960d7e702d90c232b60d3e72068211886
:10280c008a4204bf11685268626004bf09182160d3
:0c281c005c60c7e738bd00bf40034020ef
:020000040000fa
:020000040040ba
:102828008b8973b59d0706460c4607d501f147030a
:102838000b600b6101234b6102b070bd01ab6a46ae
:1028480000f06afb009905463046fff7fffd78b9ae
:10285800b4f90c309a05efd423f0030343f00203d4
:10286800a38104f147032360236101236361e3e744
:102878000d4bb362a389206043f08003a381009bc2
:102888006361019b20615bb1b4f90e10304600f022
:10289800bdfd28b1a38923f0030343f00103a381fd
:0c28a800a3891d43a581c7e7e935400066
:020000040000fa
:020000040040ba
:1028b4001e4b1f4a9342f0b438bf002103d203f8e1
:1028c400011b9342fbd11b4ad2e9000150ea0103e8
:1028d4004ff0000610d09468034602f10c076cb95f
:1028e40021b1014403f8016b9942fbd13a46d2e984
:1028f400000150ea0103eed1f0bc704759b101f177
:102904000c030c38801a1a443b461c1813f8015b5c
:1029140025709342f9d111f0030318bf012303eb8f
:10292400910107eb81073a46e1e700bf0000402030
:08293400ec00402000114000fe
:020000040000fa
:020000040040ba
:10293c002de9f74380460e46144600f055fe01285b
:10294c000ed1731efe2b0bd88df8046005460027a4
:10295c000df10409af4213d1304603b0bde8f0834a
:10296c00324604f1580301a9404600f03bfc421cde
:10297c000546ecd1a38943f04003a3810646ebe75f
:10298c00a36817f80910013b002ba36004daa269b5
:10299c00934207db0a2905d023685a1c2260197060
:1029ac000137d7e722464046fff7f0fc431cf7d12e
:0229bc00e4e74e
:020000040000fa
:020000040040ba
:1029be002de9f0410d691f4606460c4601f1140c37
:1029ce0000234ff6ff7edcf8000000ea0e0102fb4a
:1029de0001710f0c000c02fb007001ea0e010133b5
:1029ee0001eb00419d424fea10474cf8041beadc14
:1029fe00d7b1a368ab4212dc61683046013100f0fa
:102a0e008af82269023204f10c01804692000c30e1
:102a1e0000f043fd2146304600f08afb444604ebad
:0e2a2e00850301355f6125612046bde8f0811a
:020000040000fa
:020000040040ba
:102a3c00f8b51b4b1e68b369074613b9304600f056
:102a4c009ff84836d6e90134013b03d53368dbb136
:102a5c003668f7e7b4f90c50a5b9124b2566c4e9f2
:102a6c000055a560c4e90335c4e90555082229467b
:102a7c0004f1580000f094fdc4e90d55c4e9125559
:102a8c002046f8bd6434dfe70421384600f094fb9f
:102a9c00044630600028dbd10c233b60f0e700bf1c
:082aac00cc2240000100fffff5
:020000040000fa
:020000040040ba
:102ab400184b194a9a629a6e12f0020ffbd0154a0b
:102ac400136b23f07003136313469a6e12f0080f0e
:102ad400fbd0104a136b23f4407343f480731363e5
:102ae40013469a6e12f0080ffbd00a4a136b23f0b8
:102af400030343f00203136313469a6e12f0080fa4
:102b0400fbd0044b054a1a614ff48012c3f800212c
:102b1400704700bf00060e40013f182000dc830010
:020000040000fa
:020000040040ba
:102b240070b5456a04460e463db9102000f034fde8
:102b3400c0e9015560620560c560656aeb6883b1f0
:102b4400636adb6853f82600b8b9012101fa06f577
:102b54006a1d9200204600f0c1fc60b1c0e9016525
:102b64000ee021220421204600f0b8fc636ae860ec
:102b7400db68002be4d1002070bd026843f82620f6
:082b84000023c0e90333f7e769
:020000040000fa
:020000040040ba
:102b8c00836910b5044633bbc0e912330365124b9d
:102b9c00124a1b688262984204bf01238361fff7cb
:102bac0047ff60602046fff743ffa0602046fff719
:102bbc003fff0022e0600421606800f087f90122e9
:102bcc000921a06800f082f902221221e06800f0cd
:102bdc007df90123a36110bdcc224000e9354000f2
:020000040000fa
:020000040040ba
:102bec00036813f0070201460bd0da0724d49907c7
:102bfc004bbf5b089b08036003604cbf01200220a5
:102c0c00704798b2b0b91b0c102013f0ff0f04bf23
:102c1c001b0a08301a0704bf1b0904309a0704bfab
:102c2c009b080230da0703d45b0800f1010005d0e1
:102c3c000b6070471046e8e7002070472020704773
:020000040000fa
:020000040040ba
:102c4c00f0b4431e00f11d05002213f8014f22447d
:102c5c00ab42fad14ff6ff74a41ac27f837f03eb09
:102c6c0002239c4201d0f0bc70470378202b02d089
:102c7c0000230b60f7e702236ff0404c471c1a4609
:102c8c00002bb8bf5a1c0ceb6202fe5cc45c04eb5c
:0e2c9c00062441f8224002331e2bf0d1e3e75c
:020000040000fa
:020000040040ba
:022caa00fee743
:020000040000fa
:020000040040ba
:102cac0030b338b50d46044600f05afad5b10021c0
:102cbc00104a05e0936904f8013b01318d4212d0b2
:102ccc00536913f0010ffbd0536913f0e00f0ad1d5
:102cdc00536813f4003fedd09369c3f3080324f851
:102cec00023beae729468d4214bf0020012038bd83
:082cfc00002070470080024037
:020000040000fa
:020000040040ba
:102d040010b5124c23680021586800f03dfc23687c
:102d14000021986800f038fc00f026fcfff7c8fe9c
:102d2400fff78ef900f094fb4ff40043084a536018
:102d3400b03a536000f0eefb00f03afb00f096fb73
:102d440000f030f900f030f810bd00bf3c03402023
:042d540000190e4014
:020000040000fa
:020000040040ba
:102d580038b50b6905460c46dbb118b183690bb968
:102d6800fff710ff0c4b9c4209d16c68b4f90c308a
:102d78007bb121462846bde83840fef767bf074bc0
:102d88009c4201d1ac68f1e7054b9c4208bfec6856
:102d9800ece7002038bd00bfd8024020f8024020f0
:042da800b80240200d
:020000040000fa
:020000040040ba
:102dac000f4bd96821f4e0610904090c0d4a0a4360
:102dbc00da60bff35f8f62b60b4ae02182f80f1323
:102dcc004ff4004111605a6a42f480225a625a69e7
:102ddc0042f010025a615a6a42f400325a62704749
:0c2dec0000ed00e00000fa0500e100e04e
:020000040000fa
:020000040040ba
:102df800f0b130b40446e9b101200f4a651e023c27
:102e080005e02b5cd361431c81420ed918465369f7
:102e180013f0020ffbd0536813f4003ff1d034f8dd
:102e28001030c3f30803d361ede7012030bc7047cd
:0c2e3800002070470120f9e700800240f4
:020000040000fa
:020000040040ba
:102e4400f8b50e46096e8904074614460bd4d51806
:102e5400ac420dd0324614f8011b384600f056f946
:102e64000130f5d10ee023f00303d518ac4201d1b3
:102e7400002009e0324654f8041b384600f020fbd9
:0a2e84000130f3d14ff0ff30f8bd2c
:020000040000fa
:020000040040ba
:022e8e00fee75d
:020000040000fa
:020000040040ba
:102e900070b50d4d0d4c641ba4100026a64209d13f
:102ea0000b4d0c4cfdf760f9641ba4100026a642e4
:102eb00005d170bd55f8043b98470136eee755f84b
:102ec000043b98470136f2e774014000740140006a
:082ed00074014000780140008c
:020000040000fa
:020000040040ba
:102ed800002310b50446c0e900338360818103668e
:102ee800c281c0e90433836119460822583000f0d2
:102ef80059fb054b6362054ba362054be362054b27
:102f08002462236310bd00bf91334000a530400008
:082f1800b93240002d364000e3
:020000040000fa
:020000040040ba
:102f200070b50e46b1f90e10002990b014461d463a
:102f300007da00232b60b3891a0610d44ff480639c
:102f40000ee001aa00f0dcf90028f2db029a02f49c
:102f50007042a2f500535a425a412a60eee74023dc
:082f60000020236010b070bdd9
:020000040000fa
:020000040040ba
:102f680010b5054c237833b9044b13b10448aff3bb
:102f780000800123237010bd1803402000000000ca
:102f88000000000008b5034b1bb103490348aff329
:102f9800008008bd000000001c0340200000000065
:020000040000fa
:020000040040ba
:102fa8000d4b4ff486721a6050221a604ff40c626f
:102fb8005a6051221a62094b00229a61da611a6238
:102fc80083f82c205a621a605a609a601a75da607f
:102fd80083f82d20704700bf00c002400000402049
:020000040000fa
:020000040040ba
:102fe800c0b138b505460c4a92f82c200ab1002029
:102ff80038bd0c4600f0ccf8074b002283f82d2092
:103008009d61dc611a62012083f82c00034be122e8
:103018009a60ede7002070470000402000c00240a1
:020000040000fa
:020000040040ba
:10302800020c12040346cab90304102013f07f4fa0
:1030380004bf1b02083013f0704f04bf1b0104309b
:1030480013f0404f04bf9b000230002b05db13f048
:10305800804f00f1010008bf202070470020e5e7fd
:020000040000fa
:020000040040ba
:103068002de9f8438046894600f14804002614b942
:103078003046bde8f883d4e90175013f01d52468dd
:10308800f5e7ab89012b07d9b5f90e30013303d029
:0c30980029464046c84706436435eee771
:020000040000fa
:020000040040ba
:1030a4002de9f0411f468b89db0505460c46164683
:1030b40005d502230022b1f90e1000f031f9a389dd
:1030c400b4f90e1023f48053a38132463b462846bc
:0830d400bde8f04100f000b975
:020000040000fa
:020000040040ba
:1030dc0003690a699b1a30b50cd192001430143173
:1030ec008418114454f8045d51f8042d954203d012
:1030fc0005d30123184630bda042f3d3fae74ff0b5
:04310c00ff33f7e7af
:020000040000fa
:020000040040ba
:103110009368013b002b10b4936008da9469a342d2
:1031200001db0a2903d15df8044bfff735b91368b9
:0e313000581c1060197008465df8044b70477b
:020000040000fa
:020000040040ba
:10313e0070b5446a06460d463cb9102000f027fad9
:10314e00c0e9014470620460c4603db1736a6a688c
:0e315e00db6853f82210296043f8225070bd40
:020000040000fa
:020000040040ba
:10316c00094b5b6913f0e00f0dd0074b4ff48072e5
:10317c001a605b6913f0010f05d0034b9a695a6909
:0c318c0012f0010ffad1704700800240e1
:020000040000fa
:020000040040ba
:10319800094b5b6913f0e00f0dd0074b4ff48072b9
:1031a8001a605b6913f0010f05d0034b9a695a69dd
:0c31b80012f0010ffad1704700c0024075
:020000040000fa
:020000040040ba
:1031c40070b54a1e642555430e4605f17001fff79c
:1031d4003ff9044640b10021c0e900160c30a0605c
:0c31e40005f1640200f0e0f9204670bd27
:020000040000fa
:020000040040ba
:1031f000f0b5094c85b005461e46d4f8e04009b943
:103200000a4601a9a047431c01bf002333608a235b
:0c3210002b6005b0f0bd00bfec004020ba
:020000040000fa
:020000040040ba
:10321c00074a136843b10749184488428cbf4ff0e2
:10322c00ff33106018467047034b1360f3e700bf81
:0c323c0048034020500540205003402073
:020000040000fa
:020000040040ba
:103248000080e03779c34143176e05b5b5b893469a
:10325800f5f93fe9034f384d321d30f94877825a66
:083268003cbf737fdd4f1575bb
:020000040000fa
:020000040040ba
:103270000fb407b5064b04aa1b6852f8041b9868e4
:10328000019200f05ff903b05df804eb04b0704701
:043290003c0340209b
:020000040000fa
:020000040040ba
:1032940082b001b901a942b14bb113780b60127825
:1032a400101c18bf012002b070471046fbe76ff0f6
:0432b4000100f8e736
:020000040000fa
:020000040040ba
:1032b80010b50c46b1f90e1000f030f8431ca38984
:1032c80015bf606523f4805343f48053a38118bf6e
:0432d800a38110bd01
:020000040000fa
:020000040040ba
:1032dc0038b5074c054608461146002222601a46ae
:1032ec0000f0b0f9431c02d1236803b12b6038bd48
:0432fc00e800402086
:020000040000fa
:020000040040ba
:1033000038b5074c0023054608461146236000f0f7
:1033100097f9431c02d1236803b12b6038bd00bf6d
:04332000e800402061
:020000040000fa
:020000040040ba
:1033240038b5074c054608461146002222601a4665
:1033340000f088f9431c02d1236803b12b6038bd27
:04334400e80040203d
:020000040000fa
:020000040040ba
:1033480038b5074c054608461146002222601a4641
:1033580000f078f9431c02d1236803b12b6038bd13
:04336800e800402019
:020000040000fa
:020000040040ba
:10336c00494e4600696e66004e414e006e616e001d
:10337c003000232d302b2000686c4c0065666745af
:03338c00464700b1
:020000040000fa
:020000040040ba
:1033900010b50c46b1f90e10fff7d6ff0028abbff1
:1033a000636da3891b1823f48053acbf6365a381ad
:0233b00010bd4e
:020000040000fa
:020000040040ba
:0233b200fee734
:020000040000fa
:020000040040ba
:1033b400054b064ac3f88420d3f8842042f4c06243
:1033c400c3f88420704700bf004005400300090093
:020000040000fa
:020000040040ba
:1033d40038b5064c0023054608462360fff71cff5a
:1033e400431c02d1236803b12b6038bde8004020a0
:020000040000fa
:020000040040ba
:1033f40038b5064c002305460846236000f01cf946
:10340400431c02d1236803b12b6038bde80040207f
:020000040000fa
:020000040040ba
:1034140038b5064c002305460846236000f010f931
:10342400431c02d1236803b12b6038bde80040205f
:020000040000fa
:020000040040ba
:1034340058b952b138b50c46012529462046fff744
:0e34440033fc0028f9d0012038bd002070476d
:020000040000fa
:020000040040ba
:023452007047c1
:020000040000fa
:020000040040ba
:10345400044b00221a609a60034a5a6004221a60dc
:0c346400704700bf10e000e0df930400a0
:020000040000fa
:020000040040ba
:10347000054b4ff486721a6050221a604ff40c62aa
:0c3480005a6051221a627047008002401e
:020000040000fa
:020000040040ba
:10348c0038b50d461446012801d0204638bd2146da
:0c349c002846fff7abfc0028f9d0f6e74b
:020000040000fa
:020000040040ba
:1034a8000a44914200f1ff3300d1704710b511f87a
:0c34b800014b03f8014f9142f9d110bd07
:020000040000fa
:020000040040ba
:1034c400b2f90c3013f4005f06d143f40053938136
:0c34d400136e43f400531366fff72eba8a
:020000040000fa
:020000040040ba
:1034e00038b502fb01f42146fef7b4ff054618b1da
:0c34f0002246002100f05af8284638bda2
:020000040000fa
:020000040040ba
:1034fc0049b1ff2a85bf8a2303600a704ff0ff3061
:0a350c0098bf012070470846704781
:020000040000fa
:020000040040ba
:023516007047fc
:020000040000fa
:020000040040ba
:10351800034b044a5a605a6842f4c0625a607047c2
:0835280000c00040030009008f
:020000040000fa
:020000040040ba
:10353000616e676c6520666f72207361696c2c2503
:04354000660a000017
:020000040000fa
:020000040040ba
:1035440013460a46014602480068fdf71fbf00bf44
:043554003c034020d4
:020000040000fa
:020000040040ba
:1035580010b50c460121fff7e1fa0122446102612e
:0235680010bd94
:020000040000fa
:020000040040ba
:02356a007047a8
:020000040000fa
:020000040040ba
:10356c00014b024a1a607047000c0e400006000422
:020000040000fa
:020000040040ba
:10357c00024b0522c3f88020704700bf0040054075
:020000040000fa
:020000040040ba
:10358c0000294ff480630cbf02220022fef7eab838
:020000040000fa
:020000040040ba
:10359c00024b01461868fef757bf00bf3c034020a2
:020000040000fa
:020000040040ba
:1035ac0002440346934200d1704703f8011bf9e72c
:020000040000fa
:020000040040ba
:1035bc00034613f8012b002afbd1181a0138704767
:020000040000fa
:020000040040ba
:0f35cc00496e66696e697479004e614e00300079
:020000040000fa
:020000040040ba
:0c35dc00014b05221a60704700c000403f
:020000040000fa
:020000040040ba
:0c35e8000149fff73dbd00bf592d400018
:020000040000fa
:020000040040ba
:0c35f400014b93f828017047ec004020c8
:020000040000fa
:020000040040ba
:0c36000005000000190000007d00000023
:020000040000fa
:020000040040ba
:0c360c004ff400534b600020704700bfdb
:020000040000fa
:020000040040ba
:0b3618004300504f53495800002e00a3
:020000040000fa
:020000040040ba
:0836240000487047dc01402062
:020000040000fa
:020000040040ba
:08362c00b1f90e10fff7e0be3a
:020000040000fa
:020000040040ba
:083634004ff0ff30704700bfaa
:020000040000fa
:020000040040ba
:04363c00fff7fabfdb
:020000040000fa
:020000040040ba
:04364000fff7e4bfed
:020000040000fa
:020000040040ba
:0436440000f006b8d4
:020000040000fa
:020000040040ba
:0436480000f006b8d0
:020000040000fa
:020000040040ba
:04364c00fff7f2bed4
:020000040000fa
:020000040040ba
:04365000fff71cbfa5
:020000040000fa
:020000040040ba
:04365400012070479a
:020000040000fa
:020000040040ba
:043658000020704797
:020000040000fa
:02000004d0002a
:0400000002000000fa
:00000001FF
